{
  "contractName": "EcoNexus",
  "abi": [
    {
      "inputs": [],
      "stateMutability": "nonpayable",
      "type": "constructor"
    },
    {
      "anonymous": false,
      "inputs": [
        {
          "indexed": true,
          "internalType": "address",
          "name": "owner",
          "type": "address"
        },
        {
          "indexed": true,
          "internalType": "address",
          "name": "approved",
          "type": "address"
        },
        {
          "indexed": true,
          "internalType": "uint256",
          "name": "tokenId",
          "type": "uint256"
        }
      ],
      "name": "Approval",
      "type": "event"
    },
    {
      "anonymous": false,
      "inputs": [
        {
          "indexed": true,
          "internalType": "address",
          "name": "owner",
          "type": "address"
        },
        {
          "indexed": true,
          "internalType": "address",
          "name": "operator",
          "type": "address"
        },
        {
          "indexed": false,
          "internalType": "bool",
          "name": "approved",
          "type": "bool"
        }
      ],
      "name": "ApprovalForAll",
      "type": "event"
    },
    {
      "anonymous": false,
      "inputs": [
        {
          "indexed": false,
          "internalType": "uint256",
          "name": "_fromTokenId",
          "type": "uint256"
        },
        {
          "indexed": false,
          "internalType": "uint256",
          "name": "_toTokenId",
          "type": "uint256"
        }
      ],
      "name": "BatchMetadataUpdate",
      "type": "event"
    },
    {
      "anonymous": false,
      "inputs": [
        {
          "indexed": true,
          "internalType": "uint256",
          "name": "tokenId",
          "type": "uint256"
        },
        {
          "indexed": true,
          "internalType": "address",
          "name": "miner",
          "type": "address"
        },
        {
          "indexed": false,
          "internalType": "int256",
          "name": "lat",
          "type": "int256"
        },
        {
          "indexed": false,
          "internalType": "int256",
          "name": "lon",
          "type": "int256"
        },
        {
          "indexed": false,
          "internalType": "uint256",
          "name": "aqi",
          "type": "uint256"
        },
        {
          "indexed": false,
          "internalType": "string",
          "name": "ipfsHash",
          "type": "string"
        }
      ],
      "name": "DataMinted",
      "type": "event"
    },
    {
      "anonymous": false,
      "inputs": [
        {
          "indexed": false,
          "internalType": "uint256",
          "name": "_tokenId",
          "type": "uint256"
        }
      ],
      "name": "MetadataUpdate",
      "type": "event"
    },
    {
      "anonymous": false,
      "inputs": [
        {
          "indexed": true,
          "internalType": "address",
          "name": "from",
          "type": "address"
        },
        {
          "indexed": true,
          "internalType": "address",
          "name": "to",
          "type": "address"
        },
        {
          "indexed": true,
          "internalType": "uint256",
          "name": "tokenId",
          "type": "uint256"
        }
      ],
      "name": "Transfer",
      "type": "event"
    },
    {
      "inputs": [
        {
          "internalType": "address",
          "name": "to",
          "type": "address"
        },
        {
          "internalType": "uint256",
          "name": "tokenId",
          "type": "uint256"
        }
      ],
      "name": "approve",
      "outputs": [],
      "stateMutability": "nonpayable",
      "type": "function"
    },
    {
      "inputs": [
        {
          "internalType": "address",
          "name": "owner",
          "type": "address"
        }
      ],
      "name": "balanceOf",
      "outputs": [
        {
          "internalType": "uint256",
          "name": "",
          "type": "uint256"
        }
      ],
      "stateMutability": "view",
      "type": "function"
    },
    {
      "inputs": [
        {
          "internalType": "address",
          "name": "",
          "type": "address"
        }
      ],
      "name": "ecoBalance",
      "outputs": [
        {
          "internalType": "uint256",
          "name": "",
          "type": "uint256"
        }
      ],
      "stateMutability": "view",
      "type": "function"
    },
    {
      "inputs": [
        {
          "internalType": "uint256",
          "name": "tokenId",
          "type": "uint256"
        }
      ],
      "name": "getApproved",
      "outputs": [
        {
          "internalType": "address",
          "name": "",
          "type": "address"
        }
      ],
      "stateMutability": "view",
      "type": "function"
    },
    {
      "inputs": [
        {
          "internalType": "address",
          "name": "owner",
          "type": "address"
        },
        {
          "internalType": "address",
          "name": "operator",
          "type": "address"
        }
      ],
      "name": "isApprovedForAll",
      "outputs": [
        {
          "internalType": "bool",
          "name": "",
          "type": "bool"
        }
      ],
      "stateMutability": "view",
      "type": "function"
    },
    {
      "inputs": [],
      "name": "name",
      "outputs": [
        {
          "internalType": "string",
          "name": "",
          "type": "string"
        }
      ],
      "stateMutability": "view",
      "type": "function"
    },
    {
      "inputs": [],
      "name": "owner",
      "outputs": [
        {
          "internalType": "address",
          "name": "",
          "type": "address"
        }
      ],
      "stateMutability": "view",
      "type": "function"
    },
    {
      "inputs": [
        {
          "internalType": "uint256",
          "name": "tokenId",
          "type": "uint256"
        }
      ],
      "name": "ownerOf",
      "outputs": [
        {
          "internalType": "address",
          "name": "",
          "type": "address"
        }
      ],
      "stateMutability": "view",
      "type": "function"
    },
    {
      "inputs": [
        {
          "internalType": "address",
          "name": "from",
          "type": "address"
        },
        {
          "internalType": "address",
          "name": "to",
          "type": "address"
        },
        {
          "internalType": "uint256",
          "name": "tokenId",
          "type": "uint256"
        }
      ],
      "name": "safeTransferFrom",
      "outputs": [],
      "stateMutability": "nonpayable",
      "type": "function"
    },
    {
      "inputs": [
        {
          "internalType": "address",
          "name": "from",
          "type": "address"
        },
        {
          "internalType": "address",
          "name": "to",
          "type": "address"
        },
        {
          "internalType": "uint256",
          "name": "tokenId",
          "type": "uint256"
        },
        {
          "internalType": "bytes",
          "name": "data",
          "type": "bytes"
        }
      ],
      "name": "safeTransferFrom",
      "outputs": [],
      "stateMutability": "nonpayable",
      "type": "function"
    },
    {
      "inputs": [
        {
          "internalType": "address",
          "name": "operator",
          "type": "address"
        },
        {
          "internalType": "bool",
          "name": "approved",
          "type": "bool"
        }
      ],
      "name": "setApprovalForAll",
      "outputs": [],
      "stateMutability": "nonpayable",
      "type": "function"
    },
    {
      "inputs": [
        {
          "internalType": "bytes4",
          "name": "interfaceId",
          "type": "bytes4"
        }
      ],
      "name": "supportsInterface",
      "outputs": [
        {
          "internalType": "bool",
          "name": "",
          "type": "bool"
        }
      ],
      "stateMutability": "view",
      "type": "function"
    },
    {
      "inputs": [],
      "name": "symbol",
      "outputs": [
        {
          "internalType": "string",
          "name": "",
          "type": "string"
        }
      ],
      "stateMutability": "view",
      "type": "function"
    },
    {
      "inputs": [
        {
          "internalType": "uint256",
          "name": "tokenId",
          "type": "uint256"
        }
      ],
      "name": "tokenURI",
      "outputs": [
        {
          "internalType": "string",
          "name": "",
          "type": "string"
        }
      ],
      "stateMutability": "view",
      "type": "function"
    },
    {
      "inputs": [
        {
          "internalType": "address",
          "name": "from",
          "type": "address"
        },
        {
          "internalType": "address",
          "name": "to",
          "type": "address"
        },
        {
          "internalType": "uint256",
          "name": "tokenId",
          "type": "uint256"
        }
      ],
      "name": "transferFrom",
      "outputs": [],
      "stateMutability": "nonpayable",
      "type": "function"
    },
    {
      "inputs": [
        {
          "internalType": "address",
          "name": "_user",
          "type": "address"
        },
        {
          "internalType": "int256",
          "name": "_lat",
          "type": "int256"
        },
        {
          "internalType": "int256",
          "name": "_lon",
          "type": "int256"
        },
        {
          "internalType": "uint256",
          "name": "_aqi",
          "type": "uint256"
        },
        {
          "internalType": "string",
          "name": "_tokenURI",
          "type": "string"
        }
      ],
      "name": "submitData",
      "outputs": [
        {
          "internalType": "uint256",
          "name": "",
          "type": "uint256"
        }
      ],
      "stateMutability": "nonpayable",
      "type": "function"
    }
  ],
  "bytecode": "0x608060405234801561001057600080fd5b506040518060400160405280600d81526020017f45636f50756c73652044617461000000000000000000000000000000000000008152506040518060400160405280600581526020017f50554c5345000000000000000000000000000000000000000000000000000000815250816000908161008c9190610335565b50806001908161009c9190610335565b50505033600960006101000a81548173ffffffffffffffffffffffffffffffffffffffff021916908373ffffffffffffffffffffffffffffffffffffffff160217905550610407565b600081519050919050565b7f4e487b7100000000000000000000000000000000000000000000000000000000600052604160045260246000fd5b7f4e487b7100000000000000000000000000000000000000000000000000000000600052602260045260246000fd5b6000600282049050600182168061016657607f821691505b6020821081036101795761017861011f565b5b50919050565b60008190508160005260206000209050919050565b60006020601f8301049050919050565b600082821b905092915050565b6000600883026101e17fffffffffffffffffffffffffffffffffffffffffffffffffffffffffffffffff826101a4565b6101eb86836101a4565b95508019841693508086168417925050509392505050565b6000819050919050565b6000819050919050565b600061023261022d61022884610203565b61020d565b610203565b9050919050565b6000819050919050565b61024c83610217565b61026061025882610239565b8484546101b1565b825550505050565b600090565b610275610268565b610280818484610243565b505050565b5b818110156102a45761029960008261026d565b600181019050610286565b5050565b601f8211156102e9576102ba8161017f565b6102c384610194565b810160208510156102d2578190505b6102e66102de85610194565b830182610285565b50505b505050565b600082821c905092915050565b600061030c600019846008026102ee565b1980831691505092915050565b600061032583836102fb565b9150826002028217905092915050565b61033e826100e5565b67ffffffffffffffff811115610357576103566100f0565b5b610361825461014e565b61036c8282856102a8565b600060209050601f83116001811461039f576000841561038d578287015190505b6103978582610319565b8655506103ff565b601f1984166103ad8661017f565b60005b828110156103d5578489015182556001820191506020850194506020810190506103b0565b868310156103f257848901516103ee601f8916826102fb565b8355505b6001600288020188555050505b505050505050565b612e5c806104166000396000f3fe608060405234801561001057600080fd5b50600436106101005760003560e01c806388bfc4c911610097578063a22cb46511610066578063a22cb465146102d3578063b88d4fde146102ef578063c87b56dd1461030b578063e985e9c51461033b57610100565b806388bfc4c9146102375780638aad81b3146102675780638da5cb5b1461029757806395d89b41146102b557610100565b806323b872dd116100d357806323b872dd1461019f57806342842e0e146101bb5780636352211e146101d757806370a082311461020757610100565b806301ffc9a71461010557806306fdde0314610135578063081812fc14610153578063095ea7b314610183575b600080fd5b61011f600480360381019061011a9190611bb0565b61036b565b60405161012c9190611bf8565b60405180910390f35b61013d6103cc565b60405161014a9190611ca3565b60405180910390f35b61016d60048036038101906101689190611cfb565b61045e565b60405161017a9190611d69565b60405180910390f35b61019d60048036038101906101989190611db0565b6104a4565b005b6101b960048036038101906101b49190611df0565b6105bb565b005b6101d560048036038101906101d09190611df0565b61061b565b005b6101f160048036038101906101ec9190611cfb565b61063b565b6040516101fe9190611d69565b60405180910390f35b610221600480360381019061021c9190611e43565b6106c1565b60405161022e9190611e7f565b60405180910390f35b610251600480360381019061024c9190611e43565b610778565b60405161025e9190611e7f565b60405180910390f35b610281600480360381019061027c9190612005565b610790565b60405161028e9190611e7f565b60405180910390f35b61029f610907565b6040516102ac9190611d69565b60405180910390f35b6102bd61092d565b6040516102ca9190611ca3565b60405180910390f35b6102ed60048036038101906102e891906120c8565b6109bf565b005b610309600480360381019061030491906121a9565b6109d5565b005b61032560048036038101906103209190611cfb565b610a37565b6040516103329190611ca3565b60405180910390f35b6103556004803603810190610350919061222c565b610b49565b6040516103629190611bf8565b60405180910390f35b6000634906490660e01b7bffffffffffffffffffffffffffffffffffffffffffffffffffffffff1916827bffffffffffffffffffffffffffffffffffffffffffffffffffffffff191614806103c557506103c482610bdd565b5b9050919050565b6060600080546103db9061229b565b80601f01602080910402602001604051908101604052809291908181526020018280546104079061229b565b80156104545780601f1061042957610100808354040283529160200191610454565b820191906000526020600020905b81548152906001019060200180831161043757829003601f168201915b5050505050905090565b600061046982610cbf565b6004600083815260200190815260200160002060009054906101000a900473ffffffffffffffffffffffffffffffffffffffff169050919050565b60006104af8261063b565b90508073ffffffffffffffffffffffffffffffffffffffff168373ffffffffffffffffffffffffffffffffffffffff160361051f576040517f08c379a00000000000000000000000000000000000000000000000000000000081526004016105169061233e565b60405180910390fd5b8073ffffffffffffffffffffffffffffffffffffffff1661053e610d0a565b73ffffffffffffffffffffffffffffffffffffffff16148061056d575061056c81610567610d0a565b610b49565b5b6105ac576040517f08c379a00000000000000000000000000000000000000000000000000000000081526004016105a3906123d0565b60405180910390fd5b6105b68383610d12565b505050565b6105cc6105c6610d0a565b82610dcb565b61060b576040517f08c379a000000000000000000000000000000000000000000000000000000000815260040161060290612462565b60405180910390fd5b610616838383610e60565b505050565b610636838383604051806020016040528060008152506109d5565b505050565b60008061064783611159565b9050600073ffffffffffffffffffffffffffffffffffffffff168173ffffffffffffffffffffffffffffffffffffffff16036106b8576040517f08c379a00000000000000000000000000000000000000000000000000000000081526004016106af906124ce565b60405180910390fd5b80915050919050565b60008073ffffffffffffffffffffffffffffffffffffffff168273ffffffffffffffffffffffffffffffffffffffff1603610731576040517f08c379a000000000000000000000000000000000000000000000000000000000815260040161072890612560565b60405180910390fd5b600360008373ffffffffffffffffffffffffffffffffffffffff1673ffffffffffffffffffffffffffffffffffffffff168152602001908152602001600020549050919050565b60086020528060005260406000206000915090505481565b6000600960009054906101000a900473ffffffffffffffffffffffffffffffffffffffff1673ffffffffffffffffffffffffffffffffffffffff163373ffffffffffffffffffffffffffffffffffffffff1614610822576040517f08c379a0000000000000000000000000000000000000000000000000000000008152600401610819906125cc565b60405180910390fd5b61082c6007611196565b600061083860076111ac565b905061084487826111ba565b61084e81846113d7565b600a600860008973ffffffffffffffffffffffffffffffffffffffff1673ffffffffffffffffffffffffffffffffffffffff168152602001908152602001600020600082825461089e919061261b565b925050819055508673ffffffffffffffffffffffffffffffffffffffff16817fcf5c6dfc74c031db5ef08a1c1be18c21377808c6f0bab1aa3e678a8e56b0c4a7888888886040516108f2949392919061265e565b60405180910390a38091505095945050505050565b600960009054906101000a900473ffffffffffffffffffffffffffffffffffffffff1681565b60606001805461093c9061229b565b80601f01602080910402602001604051908101604052809291908181526020018280546109689061229b565b80156109b55780601f1061098a576101008083540402835291602001916109b5565b820191906000526020600020905b81548152906001019060200180831161099857829003601f168201915b5050505050905090565b6109d16109ca610d0a565b838361147b565b5050565b6109e66109e0610d0a565b83610dcb565b610a25576040517f08c379a0000000000000000000000000000000000000000000000000000000008152600401610a1c90612462565b60405180910390fd5b610a31848484846115e7565b50505050565b6060610a4282610cbf565b6000600660008481526020019081526020016000208054610a629061229b565b80601f0160208091040260200160405190810160405280929190818152602001828054610a8e9061229b565b8015610adb5780601f10610ab057610100808354040283529160200191610adb565b820191906000526020600020905b815481529060010190602001808311610abe57829003601f168201915b505050505090506000610aec611643565b90506000815103610b01578192505050610b44565b600082511115610b36578082604051602001610b1e9291906126e6565b60405160208183030381529060405292505050610b44565b610b3f8461165a565b925050505b919050565b6000600560008473ffffffffffffffffffffffffffffffffffffffff1673ffffffffffffffffffffffffffffffffffffffff16815260200190815260200160002060008373ffffffffffffffffffffffffffffffffffffffff1673ffffffffffffffffffffffffffffffffffffffff16815260200190815260200160002060009054906101000a900460ff16905092915050565b60007f80ac58cd000000000000000000000000000000000000000000000000000000007bffffffffffffffffffffffffffffffffffffffffffffffffffffffff1916827bffffffffffffffffffffffffffffffffffffffffffffffffffffffff19161480610ca857507f5b5e139f000000000000000000000000000000000000000000000000000000007bffffffffffffffffffffffffffffffffffffffffffffffffffffffff1916827bffffffffffffffffffffffffffffffffffffffffffffffffffffffff1916145b80610cb85750610cb7826116c2565b5b9050919050565b610cc88161172c565b610d07576040517f08c379a0000000000000000000000000000000000000000000000000000000008152600401610cfe906124ce565b60405180910390fd5b50565b600033905090565b816004600083815260200190815260200160002060006101000a81548173ffffffffffffffffffffffffffffffffffffffff021916908373ffffffffffffffffffffffffffffffffffffffff160217905550808273ffffffffffffffffffffffffffffffffffffffff16610d858361063b565b73ffffffffffffffffffffffffffffffffffffffff167f8c5be1e5ebec7d5bd14f71427d1e84f3dd0314c0f7b2291e5b200ac8c7c3b92560405160405180910390a45050565b600080610dd78361063b565b90508073ffffffffffffffffffffffffffffffffffffffff168473ffffffffffffffffffffffffffffffffffffffff161480610e195750610e188185610b49565b5b80610e5757508373ffffffffffffffffffffffffffffffffffffffff16610e3f8461045e565b73ffffffffffffffffffffffffffffffffffffffff16145b91505092915050565b8273ffffffffffffffffffffffffffffffffffffffff16610e808261063b565b73ffffffffffffffffffffffffffffffffffffffff1614610ed6576040517f08c379a0000000000000000000000000000000000000000000000000000000008152600401610ecd9061277c565b60405180910390fd5b600073ffffffffffffffffffffffffffffffffffffffff168273ffffffffffffffffffffffffffffffffffffffff1603610f45576040517f08c379a0000000000000000000000000000000000000000000000000000000008152600401610f3c9061280e565b60405180910390fd5b610f52838383600161176d565b8273ffffffffffffffffffffffffffffffffffffffff16610f728261063b565b73ffffffffffffffffffffffffffffffffffffffff1614610fc8576040517f08c379a0000000000000000000000000000000000000000000000000000000008152600401610fbf9061277c565b60405180910390fd5b6004600082815260200190815260200160002060006101000a81549073ffffffffffffffffffffffffffffffffffffffff02191690556001600360008573ffffffffffffffffffffffffffffffffffffffff1673ffffffffffffffffffffffffffffffffffffffff168152602001908152602001600020600082825403925050819055506001600360008473ffffffffffffffffffffffffffffffffffffffff1673ffffffffffffffffffffffffffffffffffffffff16815260200190815260200160002060008282540192505081905550816002600083815260200190815260200160002060006101000a81548173ffffffffffffffffffffffffffffffffffffffff021916908373ffffffffffffffffffffffffffffffffffffffff160217905550808273ffffffffffffffffffffffffffffffffffffffff168473ffffffffffffffffffffffffffffffffffffffff167fddf252ad1be2c89b69c2b068fc378daa952ba7f163c4a11628f55a4df523b3ef60405160405180910390a46111548383836001611773565b505050565b60006002600083815260200190815260200160002060009054906101000a900473ffffffffffffffffffffffffffffffffffffffff169050919050565b6001816000016000828254019250508190555050565b600081600001549050919050565b600073ffffffffffffffffffffffffffffffffffffffff168273ffffffffffffffffffffffffffffffffffffffff1603611229576040517f08c379a00000000000000000000000000000000000000000000000000000000081526004016112209061287a565b60405180910390fd5b6112328161172c565b15611272576040517f08c379a0000000000000000000000000000000000000000000000000000000008152600401611269906128e6565b60405180910390fd5b61128060008383600161176d565b6112898161172c565b156112c9576040517f08c379a00000000000000000000000000000000000000000000000000000000081526004016112c0906128e6565b60405180910390fd5b6001600360008473ffffffffffffffffffffffffffffffffffffffff1673ffffffffffffffffffffffffffffffffffffffff16815260200190815260200160002060008282540192505081905550816002600083815260200190815260200160002060006101000a81548173ffffffffffffffffffffffffffffffffffffffff021916908373ffffffffffffffffffffffffffffffffffffffff160217905550808273ffffffffffffffffffffffffffffffffffffffff16600073ffffffffffffffffffffffffffffffffffffffff167fddf252ad1be2c89b69c2b068fc378daa952ba7f163c4a11628f55a4df523b3ef60405160405180910390a46113d3600083836001611773565b5050565b6113e08261172c565b61141f576040517f08c379a000000000000000000000000000000000000000000000000000000000815260040161141690612978565b60405180910390fd5b8060066000848152602001908152602001600020908161143f9190612b44565b507ff8e1a15aba9398e019f0b49df1a4fde98ee17ae345cb5f6b5e2c27f5033e8ce78260405161146f9190611e7f565b60405180910390a15050565b8173ffffffffffffffffffffffffffffffffffffffff168373ffffffffffffffffffffffffffffffffffffffff16036114e9576040517f08c379a00000000000000000000000000000000000000000000000000000000081526004016114e090612c62565b60405180910390fd5b80600560008573ffffffffffffffffffffffffffffffffffffffff1673ffffffffffffffffffffffffffffffffffffffff16815260200190815260200160002060008473ffffffffffffffffffffffffffffffffffffffff1673ffffffffffffffffffffffffffffffffffffffff16815260200190815260200160002060006101000a81548160ff0219169083151502179055508173ffffffffffffffffffffffffffffffffffffffff168373ffffffffffffffffffffffffffffffffffffffff167f17307eab39ab6107e8899845ad3d59bd9653f200f220920489ca2b5937696c31836040516115da9190611bf8565b60405180910390a3505050565b6115f2848484610e60565b6115fe84848484611779565b61163d576040517f08c379a000000000000000000000000000000000000000000000000000000000815260040161163490612cf4565b60405180910390fd5b50505050565b606060405180602001604052806000815250905090565b606061166582610cbf565b600061166f611643565b9050600081511161168f57604051806020016040528060008152506116ba565b8061169984611900565b6040516020016116aa9291906126e6565b6040516020818303038152906040525b915050919050565b60007f01ffc9a7000000000000000000000000000000000000000000000000000000007bffffffffffffffffffffffffffffffffffffffffffffffffffffffff1916827bffffffffffffffffffffffffffffffffffffffffffffffffffffffff1916149050919050565b60008073ffffffffffffffffffffffffffffffffffffffff1661174e83611159565b73ffffffffffffffffffffffffffffffffffffffff1614159050919050565b50505050565b50505050565b600061179a8473ffffffffffffffffffffffffffffffffffffffff166119ce565b156118f3578373ffffffffffffffffffffffffffffffffffffffff1663150b7a026117c3610d0a565b8786866040518563ffffffff1660e01b81526004016117e59493929190612d69565b6020604051808303816000875af192505050801561182157506040513d601f19601f8201168201806040525081019061181e9190612dca565b60015b6118a3573d8060008114611851576040519150601f19603f3d011682016040523d82523d6000602084013e611856565b606091505b50600081510361189b576040517f08c379a000000000000000000000000000000000000000000000000000000000815260040161189290612cf4565b60405180910390fd5b805181602001fd5b63150b7a0260e01b7bffffffffffffffffffffffffffffffffffffffffffffffffffffffff1916817bffffffffffffffffffffffffffffffffffffffffffffffffffffffff1916149150506118f8565b600190505b949350505050565b60606000600161190f846119f1565b01905060008167ffffffffffffffff81111561192e5761192d611eda565b5b6040519080825280601f01601f1916602001820160405280156119605781602001600182028036833780820191505090505b509050600082602001820190505b6001156119c3578080600190039150507f3031323334353637383961626364656600000000000000000000000000000000600a86061a8153600a85816119b7576119b6612df7565b5b0494506000850361196e575b819350505050919050565b6000808273ffffffffffffffffffffffffffffffffffffffff163b119050919050565b600080600090507a184f03e93ff9f4daa797ed6e38ed64bf6a1f0100000000000000008310611a4f577a184f03e93ff9f4daa797ed6e38ed64bf6a1f0100000000000000008381611a4557611a44612df7565b5b0492506040810190505b6d04ee2d6d415b85acef81000000008310611a8c576d04ee2d6d415b85acef81000000008381611a8257611a81612df7565b5b0492506020810190505b662386f26fc100008310611abb57662386f26fc100008381611ab157611ab0612df7565b5b0492506010810190505b6305f5e1008310611ae4576305f5e1008381611ada57611ad9612df7565b5b0492506008810190505b6127108310611b09576127108381611aff57611afe612df7565b5b0492506004810190505b60648310611b2c5760648381611b2257611b21612df7565b5b0492506002810190505b600a8310611b3b576001810190505b80915050919050565b6000604051905090565b600080fd5b600080fd5b60007fffffffff0000000000000000000000000000000000000000000000000000000082169050919050565b611b8d81611b58565b8114611b9857600080fd5b50565b600081359050611baa81611b84565b92915050565b600060208284031215611bc657611bc5611b4e565b5b6000611bd484828501611b9b565b91505092915050565b60008115159050919050565b611bf281611bdd565b82525050565b6000602082019050611c0d6000830184611be9565b92915050565b600081519050919050565b600082825260208201905092915050565b60005b83811015611c4d578082015181840152602081019050611c32565b60008484015250505050565b6000601f19601f8301169050919050565b6000611c7582611c13565b611c7f8185611c1e565b9350611c8f818560208601611c2f565b611c9881611c59565b840191505092915050565b60006020820190508181036000830152611cbd8184611c6a565b905092915050565b6000819050919050565b611cd881611cc5565b8114611ce357600080fd5b50565b600081359050611cf581611ccf565b92915050565b600060208284031215611d1157611d10611b4e565b5b6000611d1f84828501611ce6565b91505092915050565b600073ffffffffffffffffffffffffffffffffffffffff82169050919050565b6000611d5382611d28565b9050919050565b611d6381611d48565b82525050565b6000602082019050611d7e6000830184611d5a565b92915050565b611d8d81611d48565b8114611d9857600080fd5b50565b600081359050611daa81611d84565b92915050565b60008060408385031215611dc757611dc6611b4e565b5b6000611dd585828601611d9b565b9250506020611de685828601611ce6565b9150509250929050565b600080600060608486031215611e0957611e08611b4e565b5b6000611e1786828701611d9b565b9350506020611e2886828701611d9b565b9250506040611e3986828701611ce6565b9150509250925092565b600060208284031215611e5957611e58611b4e565b5b6000611e6784828501611d9b565b91505092915050565b611e7981611cc5565b82525050565b6000602082019050611e946000830184611e70565b92915050565b6000819050919050565b611ead81611e9a565b8114611eb857600080fd5b50565b600081359050611eca81611ea4565b92915050565b600080fd5b600080fd5b7f4e487b7100000000000000000000000000000000000000000000000000000000600052604160045260246000fd5b611f1282611c59565b810181811067ffffffffffffffff82111715611f3157611f30611eda565b5b80604052505050565b6000611f44611b44565b9050611f508282611f09565b919050565b600067ffffffffffffffff821115611f7057611f6f611eda565b5b611f7982611c59565b9050602081019050919050565b82818337600083830152505050565b6000611fa8611fa384611f55565b611f3a565b905082815260208101848484011115611fc457611fc3611ed5565b5b611fcf848285611f86565b509392505050565b600082601f830112611fec57611feb611ed0565b5b8135611ffc848260208601611f95565b91505092915050565b600080600080600060a0868803121561202157612020611b4e565b5b600061202f88828901611d9b565b955050602061204088828901611ebb565b945050604061205188828901611ebb565b935050606061206288828901611ce6565b925050608086013567ffffffffffffffff81111561208357612082611b53565b5b61208f88828901611fd7565b9150509295509295909350565b6120a581611bdd565b81146120b057600080fd5b50565b6000813590506120c28161209c565b92915050565b600080604083850312156120df576120de611b4e565b5b60006120ed85828601611d9b565b92505060206120fe858286016120b3565b9150509250929050565b600067ffffffffffffffff82111561212357612122611eda565b5b61212c82611c59565b9050602081019050919050565b600061214c61214784612108565b611f3a565b90508281526020810184848401111561216857612167611ed5565b5b612173848285611f86565b509392505050565b600082601f8301126121905761218f611ed0565b5b81356121a0848260208601612139565b91505092915050565b600080600080608085870312156121c3576121c2611b4e565b5b60006121d187828801611d9b565b94505060206121e287828801611d9b565b93505060406121f387828801611ce6565b925050606085013567ffffffffffffffff81111561221457612213611b53565b5b6122208782880161217b565b91505092959194509250565b6000806040838503121561224357612242611b4e565b5b600061225185828601611d9b565b925050602061226285828601611d9b565b9150509250929050565b7f4e487b7100000000000000000000000000000000000000000000000000000000600052602260045260246000fd5b600060028204905060018216806122b357607f821691505b6020821081036122c6576122c561226c565b5b50919050565b7f4552433732313a20617070726f76616c20746f2063757272656e74206f776e6560008201527f7200000000000000000000000000000000000000000000000000000000000000602082015250565b6000612328602183611c1e565b9150612333826122cc565b604082019050919050565b600060208201905081810360008301526123578161231b565b9050919050565b7f4552433732313a20617070726f76652063616c6c6572206973206e6f7420746f60008201527f6b656e206f776e6572206f7220617070726f76656420666f7220616c6c000000602082015250565b60006123ba603d83611c1e565b91506123c58261235e565b604082019050919050565b600060208201905081810360008301526123e9816123ad565b9050919050565b7f4552433732313a2063616c6c6572206973206e6f7420746f6b656e206f776e6560008201527f72206f7220617070726f76656400000000000000000000000000000000000000602082015250565b600061244c602d83611c1e565b9150612457826123f0565b604082019050919050565b6000602082019050818103600083015261247b8161243f565b9050919050565b7f4552433732313a20696e76616c696420746f6b656e2049440000000000000000600082015250565b60006124b8601883611c1e565b91506124c382612482565b602082019050919050565b600060208201905081810360008301526124e7816124ab565b9050919050565b7f4552433732313a2061646472657373207a65726f206973206e6f74206120766160008201527f6c6964206f776e65720000000000000000000000000000000000000000000000602082015250565b600061254a602983611c1e565b9150612555826124ee565b604082019050919050565b600060208201905081810360008301526125798161253d565b9050919050565b7f4f6e6c7920746865204f776e65722063616e20646f2074686973210000000000600082015250565b60006125b6601b83611c1e565b91506125c182612580565b602082019050919050565b600060208201905081810360008301526125e5816125a9565b9050919050565b7f4e487b7100000000000000000000000000000000000000000000000000000000600052601160045260246000fd5b600061262682611cc5565b915061263183611cc5565b9250828201905080821115612649576126486125ec565b5b92915050565b61265881611e9a565b82525050565b6000608082019050612673600083018761264f565b612680602083018661264f565b61268d6040830185611e70565b818103606083015261269f8184611c6a565b905095945050505050565b600081905092915050565b60006126c082611c13565b6126ca81856126aa565b93506126da818560208601611c2f565b80840191505092915050565b60006126f282856126b5565b91506126fe82846126b5565b91508190509392505050565b7f4552433732313a207472616e736665722066726f6d20696e636f72726563742060008201527f6f776e6572000000000000000000000000000000000000000000000000000000602082015250565b6000612766602583611c1e565b91506127718261270a565b604082019050919050565b6000602082019050818103600083015261279581612759565b9050919050565b7f4552433732313a207472616e7366657220746f20746865207a65726f2061646460008201527f7265737300000000000000000000000000000000000000000000000000000000602082015250565b60006127f8602483611c1e565b91506128038261279c565b604082019050919050565b60006020820190508181036000830152612827816127eb565b9050919050565b7f4552433732313a206d696e7420746f20746865207a65726f2061646472657373600082015250565b6000612864602083611c1e565b915061286f8261282e565b602082019050919050565b6000602082019050818103600083015261289381612857565b9050919050565b7f4552433732313a20746f6b656e20616c7265616479206d696e74656400000000600082015250565b60006128d0601c83611c1e565b91506128db8261289a565b602082019050919050565b600060208201905081810360008301526128ff816128c3565b9050919050565b7f45524337323155524953746f726167653a2055524920736574206f66206e6f6e60008201527f6578697374656e7420746f6b656e000000000000000000000000000000000000602082015250565b6000612962602e83611c1e565b915061296d82612906565b604082019050919050565b6000602082019050818103600083015261299181612955565b9050919050565b60008190508160005260206000209050919050565b60006020601f8301049050919050565b600082821b905092915050565b6000600883026129fa7fffffffffffffffffffffffffffffffffffffffffffffffffffffffffffffffff826129bd565b612a0486836129bd565b95508019841693508086168417925050509392505050565b6000819050919050565b6000612a41612a3c612a3784611cc5565b612a1c565b611cc5565b9050919050565b6000819050919050565b612a5b83612a26565b612a6f612a6782612a48565b8484546129ca565b825550505050565b600090565b612a84612a77565b612a8f818484612a52565b505050565b5b81811015612ab357612aa8600082612a7c565b600181019050612a95565b5050565b601f821115612af857612ac981612998565b612ad2846129ad565b81016020851015612ae1578190505b612af5612aed856129ad565b830182612a94565b50505b505050565b600082821c905092915050565b6000612b1b60001984600802612afd565b1980831691505092915050565b6000612b348383612b0a565b9150826002028217905092915050565b612b4d82611c13565b67ffffffffffffffff811115612b6657612b65611eda565b5b612b70825461229b565b612b7b828285612ab7565b600060209050601f831160018114612bae5760008415612b9c578287015190505b612ba68582612b28565b865550612c0e565b601f198416612bbc86612998565b60005b82811015612be457848901518255600182019150602085019450602081019050612bbf565b86831015612c015784890151612bfd601f891682612b0a565b8355505b6001600288020188555050505b505050505050565b7f4552433732313a20617070726f766520746f2063616c6c657200000000000000600082015250565b6000612c4c601983611c1e565b9150612c5782612c16565b602082019050919050565b60006020820190508181036000830152612c7b81612c3f565b9050919050565b7f4552433732313a207472616e7366657220746f206e6f6e20455243373231526560008201527f63656976657220696d706c656d656e7465720000000000000000000000000000602082015250565b6000612cde603283611c1e565b9150612ce982612c82565b604082019050919050565b60006020820190508181036000830152612d0d81612cd1565b9050919050565b600081519050919050565b600082825260208201905092915050565b6000612d3b82612d14565b612d458185612d1f565b9350612d55818560208601611c2f565b612d5e81611c59565b840191505092915050565b6000608082019050612d7e6000830187611d5a565b612d8b6020830186611d5a565b612d986040830185611e70565b8181036060830152612daa8184612d30565b905095945050505050565b600081519050612dc481611b84565b92915050565b600060208284031215612de057612ddf611b4e565b5b6000612dee84828501612db5565b91505092915050565b7f4e487b7100000000000000000000000000000000000000000000000000000000600052601260045260246000fdfea264697066735822122011858b4d4f0a616421db053ec86b915230df8d5b25b4e96154c6e7fd5b24f47b64736f6c634300081e0033",
  "immutableReferences": {},
  "source": "// SPDX-License-Identifier: MIT\r\npragma solidity ^0.8.20;\r\n\r\nimport \"@openzeppelin/contracts/token/ERC721/extensions/ERC721URIStorage.sol\";\r\nimport \"@openzeppelin/contracts/utils/Counters.sol\";\r\n\r\ncontract EcoNexus is ERC721URIStorage {\r\n    using Counters for Counters.Counter;\r\n    Counters.Counter private _tokenIds;\r\n\r\n    // 1. STATE VARIABLES\r\n    mapping(address => uint256) public ecoBalance;\r\n    // Removed lastMintTime mapping\r\n    \r\n    // Removed cooldownPeriod variable\r\n\r\n    // The Boss (You)\r\n    address public owner;\r\n\r\n    // 2. EVENTS\r\n    event DataMinted(uint256 indexed tokenId, address indexed miner, int256 lat, int256 lon, uint256 aqi, string ipfsHash);\r\n    // Removed CooldownChanged event\r\n\r\n    // 3. MODIFIER (Security)\r\n    modifier onlyOwner() {\r\n        require(msg.sender == owner, \"Only the Owner can do this!\");\r\n        _;\r\n    }\r\n\r\n    constructor() ERC721(\"EcoPulse Data\", \"PULSE\") {\r\n        owner = msg.sender; // You become the owner when you deploy\r\n    }\r\n\r\n    // 4. REMOVED: setCooldown function\r\n\r\n    // 5. THE MAIN FUNCTION - UPDATED (cooldown removed)\r\n    function submitData(\r\n        address _user,\r\n        int256 _lat, \r\n        int256 _lon, \r\n        uint256 _aqi, \r\n        string memory _tokenURI\r\n    ) \r\n        public \r\n        onlyOwner\r\n        returns (uint256)\r\n    {\r\n        // REMOVED: Cooldown check\r\n\r\n        _tokenIds.increment();\r\n        uint256 newItemId = _tokenIds.current();\r\n\r\n        // Mint NFT to the USER\r\n        _mint(_user, newItemId);\r\n        _setTokenURI(newItemId, _tokenURI);\r\n\r\n        // Add ECO to USER's balance\r\n        ecoBalance[_user] += 10;\r\n        \r\n        // REMOVED: lastMintTime update\r\n\r\n        emit DataMinted(newItemId, _user, _lat, _lon, _aqi, _tokenURI);\r\n\r\n        return newItemId;\r\n    }\r\n    \r\n    // REMOVED: getTimeUntilNextMint function\r\n}",
  "sourcePath": "C:\\Users\\hp\\OneDrive\\Desktop\\Projects\\ECO.TWIN\\blockchain\\contracts\\EcoNexus.sol",
  "compiler": {
    "name": "solc",
    "version": "0.8.30+commit.73712a01.Emscripten.clang"
  },
  "schemaVersion": "3.4.16",
  "updatedAt": "2026-03-01T03:37:40.039Z",
  "devdoc": {
    "events": {
      "Approval(address,address,uint256)": {
        "details": "Emitted when `owner` enables `approved` to manage the `tokenId` token."
      },
      "ApprovalForAll(address,address,bool)": {
        "details": "Emitted when `owner` enables or disables (`approved`) `operator` to manage all of its assets."
      },
      "BatchMetadataUpdate(uint256,uint256)": {
        "details": "This event emits when the metadata of a range of tokens is changed. So that the third-party platforms such as NFT market could timely update the images and related attributes of the NFTs."
      },
      "MetadataUpdate(uint256)": {
        "details": "This event emits when the metadata of a token is changed. So that the third-party platforms such as NFT market could timely update the images and related attributes of the NFT."
      },
      "Transfer(address,address,uint256)": {
        "details": "Emitted when `tokenId` token is transferred from `from` to `to`."
      }
    },
    "kind": "dev",
    "methods": {
      "approve(address,uint256)": {
        "details": "See {IERC721-approve}."
      },
      "balanceOf(address)": {
        "details": "See {IERC721-balanceOf}."
      },
      "getApproved(uint256)": {
        "details": "See {IERC721-getApproved}."
      },
      "isApprovedForAll(address,address)": {
        "details": "See {IERC721-isApprovedForAll}."
      },
      "name()": {
        "details": "See {IERC721Metadata-name}."
      },
      "ownerOf(uint256)": {
        "details": "See {IERC721-ownerOf}."
      },
      "safeTransferFrom(address,address,uint256)": {
        "details": "See {IERC721-safeTransferFrom}."
      },
      "safeTransferFrom(address,address,uint256,bytes)": {
        "details": "See {IERC721-safeTransferFrom}."
      },
      "setApprovalForAll(address,bool)": {
        "details": "See {IERC721-setApprovalForAll}."
      },
      "supportsInterface(bytes4)": {
        "details": "See {IERC165-supportsInterface}"
      },
      "symbol()": {
        "details": "See {IERC721Metadata-symbol}."
      },
      "tokenURI(uint256)": {
        "details": "See {IERC721Metadata-tokenURI}."
      },
      "transferFrom(address,address,uint256)": {
        "details": "See {IERC721-transferFrom}."
      }
    },
    "version": 1
  },
  "userdoc": {
    "kind": "user",
    "methods": {},
    "version": 1
  }
}