{
  "contractName": "EcoNexus",
  "abi": [
    {
      "inputs": [],
      "stateMutability": "nonpayable",
      "type": "constructor"
    },
    {
      "anonymous": false,
      "inputs": [
        {
          "indexed": true,
          "internalType": "address",
          "name": "owner",
          "type": "address"
        },
        {
          "indexed": true,
          "internalType": "address",
          "name": "approved",
          "type": "address"
        },
        {
          "indexed": true,
          "internalType": "uint256",
          "name": "tokenId",
          "type": "uint256"
        }
      ],
      "name": "Approval",
      "type": "event"
    },
    {
      "anonymous": false,
      "inputs": [
        {
          "indexed": true,
          "internalType": "address",
          "name": "owner",
          "type": "address"
        },
        {
          "indexed": true,
          "internalType": "address",
          "name": "operator",
          "type": "address"
        },
        {
          "indexed": false,
          "internalType": "bool",
          "name": "approved",
          "type": "bool"
        }
      ],
      "name": "ApprovalForAll",
      "type": "event"
    },
    {
      "anonymous": false,
      "inputs": [
        {
          "indexed": false,
          "internalType": "uint256",
          "name": "_fromTokenId",
          "type": "uint256"
        },
        {
          "indexed": false,
          "internalType": "uint256",
          "name": "_toTokenId",
          "type": "uint256"
        }
      ],
      "name": "BatchMetadataUpdate",
      "type": "event"
    },
    {
      "anonymous": false,
      "inputs": [
        {
          "indexed": true,
          "internalType": "uint256",
          "name": "tokenId",
          "type": "uint256"
        },
        {
          "indexed": true,
          "internalType": "address",
          "name": "miner",
          "type": "address"
        },
        {
          "indexed": false,
          "internalType": "string",
          "name": "tokenURI",
          "type": "string"
        },
        {
          "indexed": false,
          "internalType": "uint256",
          "name": "reward",
          "type": "uint256"
        }
      ],
      "name": "DataMinted",
      "type": "event"
    },
    {
      "anonymous": false,
      "inputs": [
        {
          "indexed": false,
          "internalType": "uint256",
          "name": "_tokenId",
          "type": "uint256"
        }
      ],
      "name": "MetadataUpdate",
      "type": "event"
    },
    {
      "anonymous": false,
      "inputs": [
        {
          "indexed": true,
          "internalType": "address",
          "name": "previousOwner",
          "type": "address"
        },
        {
          "indexed": true,
          "internalType": "address",
          "name": "newOwner",
          "type": "address"
        }
      ],
      "name": "OwnershipTransferred",
      "type": "event"
    },
    {
      "anonymous": false,
      "inputs": [
        {
          "indexed": true,
          "internalType": "address",
          "name": "from",
          "type": "address"
        },
        {
          "indexed": true,
          "internalType": "address",
          "name": "to",
          "type": "address"
        },
        {
          "indexed": true,
          "internalType": "uint256",
          "name": "tokenId",
          "type": "uint256"
        }
      ],
      "name": "Transfer",
      "type": "event"
    },
    {
      "inputs": [
        {
          "internalType": "address",
          "name": "to",
          "type": "address"
        },
        {
          "internalType": "uint256",
          "name": "tokenId",
          "type": "uint256"
        }
      ],
      "name": "approve",
      "outputs": [],
      "stateMutability": "nonpayable",
      "type": "function"
    },
    {
      "inputs": [
        {
          "internalType": "address",
          "name": "owner",
          "type": "address"
        }
      ],
      "name": "balanceOf",
      "outputs": [
        {
          "internalType": "uint256",
          "name": "",
          "type": "uint256"
        }
      ],
      "stateMutability": "view",
      "type": "function",
      "constant": true
    },
    {
      "inputs": [
        {
          "internalType": "address",
          "name": "",
          "type": "address"
        }
      ],
      "name": "ecoBalance",
      "outputs": [
        {
          "internalType": "uint256",
          "name": "",
          "type": "uint256"
        }
      ],
      "stateMutability": "view",
      "type": "function",
      "constant": true
    },
    {
      "inputs": [
        {
          "internalType": "uint256",
          "name": "tokenId",
          "type": "uint256"
        }
      ],
      "name": "getApproved",
      "outputs": [
        {
          "internalType": "address",
          "name": "",
          "type": "address"
        }
      ],
      "stateMutability": "view",
      "type": "function",
      "constant": true
    },
    {
      "inputs": [
        {
          "internalType": "address",
          "name": "owner",
          "type": "address"
        },
        {
          "internalType": "address",
          "name": "operator",
          "type": "address"
        }
      ],
      "name": "isApprovedForAll",
      "outputs": [
        {
          "internalType": "bool",
          "name": "",
          "type": "bool"
        }
      ],
      "stateMutability": "view",
      "type": "function",
      "constant": true
    },
    {
      "inputs": [],
      "name": "name",
      "outputs": [
        {
          "internalType": "string",
          "name": "",
          "type": "string"
        }
      ],
      "stateMutability": "view",
      "type": "function",
      "constant": true
    },
    {
      "inputs": [],
      "name": "owner",
      "outputs": [
        {
          "internalType": "address",
          "name": "",
          "type": "address"
        }
      ],
      "stateMutability": "view",
      "type": "function",
      "constant": true
    },
    {
      "inputs": [
        {
          "internalType": "uint256",
          "name": "tokenId",
          "type": "uint256"
        }
      ],
      "name": "ownerOf",
      "outputs": [
        {
          "internalType": "address",
          "name": "",
          "type": "address"
        }
      ],
      "stateMutability": "view",
      "type": "function",
      "constant": true
    },
    {
      "inputs": [],
      "name": "renounceOwnership",
      "outputs": [],
      "stateMutability": "nonpayable",
      "type": "function"
    },
    {
      "inputs": [
        {
          "internalType": "address",
          "name": "from",
          "type": "address"
        },
        {
          "internalType": "address",
          "name": "to",
          "type": "address"
        },
        {
          "internalType": "uint256",
          "name": "tokenId",
          "type": "uint256"
        }
      ],
      "name": "safeTransferFrom",
      "outputs": [],
      "stateMutability": "nonpayable",
      "type": "function"
    },
    {
      "inputs": [
        {
          "internalType": "address",
          "name": "from",
          "type": "address"
        },
        {
          "internalType": "address",
          "name": "to",
          "type": "address"
        },
        {
          "internalType": "uint256",
          "name": "tokenId",
          "type": "uint256"
        },
        {
          "internalType": "bytes",
          "name": "data",
          "type": "bytes"
        }
      ],
      "name": "safeTransferFrom",
      "outputs": [],
      "stateMutability": "nonpayable",
      "type": "function"
    },
    {
      "inputs": [
        {
          "internalType": "address",
          "name": "operator",
          "type": "address"
        },
        {
          "internalType": "bool",
          "name": "approved",
          "type": "bool"
        }
      ],
      "name": "setApprovalForAll",
      "outputs": [],
      "stateMutability": "nonpayable",
      "type": "function"
    },
    {
      "inputs": [
        {
          "internalType": "bytes4",
          "name": "interfaceId",
          "type": "bytes4"
        }
      ],
      "name": "supportsInterface",
      "outputs": [
        {
          "internalType": "bool",
          "name": "",
          "type": "bool"
        }
      ],
      "stateMutability": "view",
      "type": "function",
      "constant": true
    },
    {
      "inputs": [],
      "name": "symbol",
      "outputs": [
        {
          "internalType": "string",
          "name": "",
          "type": "string"
        }
      ],
      "stateMutability": "view",
      "type": "function",
      "constant": true
    },
    {
      "inputs": [
        {
          "internalType": "uint256",
          "name": "tokenId",
          "type": "uint256"
        }
      ],
      "name": "tokenURI",
      "outputs": [
        {
          "internalType": "string",
          "name": "",
          "type": "string"
        }
      ],
      "stateMutability": "view",
      "type": "function",
      "constant": true
    },
    {
      "inputs": [
        {
          "internalType": "address",
          "name": "from",
          "type": "address"
        },
        {
          "internalType": "address",
          "name": "to",
          "type": "address"
        },
        {
          "internalType": "uint256",
          "name": "tokenId",
          "type": "uint256"
        }
      ],
      "name": "transferFrom",
      "outputs": [],
      "stateMutability": "nonpayable",
      "type": "function"
    },
    {
      "inputs": [
        {
          "internalType": "address",
          "name": "newOwner",
          "type": "address"
        }
      ],
      "name": "transferOwnership",
      "outputs": [],
      "stateMutability": "nonpayable",
      "type": "function"
    },
    {
      "inputs": [
        {
          "internalType": "address",
          "name": "",
          "type": "address"
        },
        {
          "internalType": "uint256",
          "name": "",
          "type": "uint256"
        }
      ],
      "name": "userContributions",
      "outputs": [
        {
          "internalType": "uint256",
          "name": "",
          "type": "uint256"
        }
      ],
      "stateMutability": "view",
      "type": "function",
      "constant": true
    },
    {
      "inputs": [
        {
          "internalType": "address",
          "name": "_user",
          "type": "address"
        },
        {
          "internalType": "string",
          "name": "_tokenURI",
          "type": "string"
        }
      ],
      "name": "submitData",
      "outputs": [
        {
          "internalType": "uint256",
          "name": "",
          "type": "uint256"
        }
      ],
      "stateMutability": "nonpayable",
      "type": "function"
    },
    {
      "inputs": [
        {
          "internalType": "address",
          "name": "_user",
          "type": "address"
        }
      ],
      "name": "getUserTokenIds",
      "outputs": [
        {
          "internalType": "uint256[]",
          "name": "",
          "type": "uint256[]"
        }
      ],
      "stateMutability": "view",
      "type": "function",
      "constant": true
    },
    {
      "inputs": [],
      "name": "getTotalMinted",
      "outputs": [
        {
          "internalType": "uint256",
          "name": "",
          "type": "uint256"
        }
      ],
      "stateMutability": "view",
      "type": "function",
      "constant": true
    },
    {
      "inputs": [
        {
          "internalType": "address",
          "name": "_user",
          "type": "address"
        }
      ],
      "name": "getBalance",
      "outputs": [
        {
          "internalType": "uint256",
          "name": "",
          "type": "uint256"
        }
      ],
      "stateMutability": "view",
      "type": "function",
      "constant": true
    }
  ],
  "bytecode": "0x608060405234801561001057600080fd5b506040518060400160405280600d81526020017f45636f50756c73652044617461000000000000000000000000000000000000008152506040518060400160405280600581526020017f50554c5345000000000000000000000000000000000000000000000000000000815250816000908161008c91906103de565b50806001908161009c91906103de565b5050506100bb6100b06100c060201b60201c565b6100c860201b60201c565b6104b0565b600033905090565b6000600760009054906101000a900473ffffffffffffffffffffffffffffffffffffffff16905081600760006101000a81548173ffffffffffffffffffffffffffffffffffffffff021916908373ffffffffffffffffffffffffffffffffffffffff1602179055508173ffffffffffffffffffffffffffffffffffffffff168173ffffffffffffffffffffffffffffffffffffffff167f8be0079c531659141344cd1fd0a4f28419497f9722a3daafe3b4186f6b6457e060405160405180910390a35050565b600081519050919050565b7f4e487b7100000000000000000000000000000000000000000000000000000000600052604160045260246000fd5b7f4e487b7100000000000000000000000000000000000000000000000000000000600052602260045260246000fd5b6000600282049050600182168061020f57607f821691505b602082108103610222576102216101c8565b5b50919050565b60008190508160005260206000209050919050565b60006020601f8301049050919050565b600082821b905092915050565b60006008830261028a7fffffffffffffffffffffffffffffffffffffffffffffffffffffffffffffffff8261024d565b610294868361024d565b95508019841693508086168417925050509392505050565b6000819050919050565b6000819050919050565b60006102db6102d66102d1846102ac565b6102b6565b6102ac565b9050919050565b6000819050919050565b6102f5836102c0565b610309610301826102e2565b84845461025a565b825550505050565b600090565b61031e610311565b6103298184846102ec565b505050565b5b8181101561034d57610342600082610316565b60018101905061032f565b5050565b601f8211156103925761036381610228565b61036c8461023d565b8101602085101561037b578190505b61038f6103878561023d565b83018261032e565b50505b505050565b600082821c905092915050565b60006103b560001984600802610397565b1980831691505092915050565b60006103ce83836103a4565b9150826002028217905092915050565b6103e78261018e565b67ffffffffffffffff811115610400576103ff610199565b5b61040a82546101f7565b610415828285610351565b600060209050601f8311600181146104485760008415610436578287015190505b61044085826103c2565b8655506104a8565b601f19841661045686610228565b60005b8281101561047e57848901518255600182019150602085019450602081019050610459565b8683101561049b5784890151610497601f8916826103a4565b8355505b6001600288020188555050505b505050505050565b613380806104bf6000396000f3fe608060405234801561001057600080fd5b50600436106101425760003560e01c80637d48d0ae116100b8578063a22cb4651161007c578063a22cb4651461039d578063b88d4fde146103b9578063c87b56dd146103d5578063e985e9c514610405578063f2fde38b14610435578063f8b2cb4f1461045157610142565b80637d48d0ae146102d157806388bfc4c9146103015780638da5cb5b1461033157806392ddf23c1461034f57806395d89b411461037f57610142565b806323b872dd1161010a57806323b872dd146101ff57806342842e0e1461021b5780636352211e1461023757806370a0823114610267578063715018a6146102975780637331fa95146102a157610142565b806301ffc9a71461014757806306fdde0314610177578063081812fc14610195578063095ea7b3146101c55780630ca1c5c9146101e1575b600080fd5b610161600480360381019061015c9190611f7b565b610481565b60405161016e9190611fc3565b60405180910390f35b61017f6104e2565b60405161018c919061206e565b60405180910390f35b6101af60048036038101906101aa91906120c6565b610574565b6040516101bc9190612134565b60405180910390f35b6101df60048036038101906101da919061217b565b6105ba565b005b6101e96106d1565b6040516101f691906121ca565b60405180910390f35b610219600480360381019061021491906121e5565b6106db565b005b610235600480360381019061023091906121e5565b61073b565b005b610251600480360381019061024c91906120c6565b61075b565b60405161025e9190612134565b60405180910390f35b610281600480360381019061027c9190612238565b6107e1565b60405161028e91906121ca565b60405180910390f35b61029f610898565b005b6102bb60048036038101906102b6919061217b565b6108ac565b6040516102c891906121ca565b60405180910390f35b6102eb60048036038101906102e6919061239a565b6108dd565b6040516102f891906121ca565b60405180910390f35b61031b60048036038101906103169190612238565b610a33565b60405161032891906121ca565b60405180910390f35b610339610a4b565b6040516103469190612134565b60405180910390f35b61036960048036038101906103649190612238565b610a75565b60405161037691906124b4565b60405180910390f35b610387610b0c565b604051610394919061206e565b60405180910390f35b6103b760048036038101906103b29190612502565b610b9e565b005b6103d360048036038101906103ce91906125e3565b610bb4565b005b6103ef60048036038101906103ea91906120c6565b610c16565b6040516103fc919061206e565b60405180910390f35b61041f600480360381019061041a9190612666565b610d28565b60405161042c9190611fc3565b60405180910390f35b61044f600480360381019061044a9190612238565b610dbc565b005b61046b60048036038101906104669190612238565b610e3f565b60405161047891906121ca565b60405180910390f35b6000634906490660e01b7bffffffffffffffffffffffffffffffffffffffffffffffffffffffff1916827bffffffffffffffffffffffffffffffffffffffffffffffffffffffff191614806104db57506104da82610e88565b5b9050919050565b6060600080546104f1906126d5565b80601f016020809104026020016040519081016040528092919081815260200182805461051d906126d5565b801561056a5780601f1061053f5761010080835404028352916020019161056a565b820191906000526020600020905b81548152906001019060200180831161054d57829003601f168201915b5050505050905090565b600061057f82610f6a565b6004600083815260200190815260200160002060009054906101000a900473ffffffffffffffffffffffffffffffffffffffff169050919050565b60006105c58261075b565b90508073ffffffffffffffffffffffffffffffffffffffff168373ffffffffffffffffffffffffffffffffffffffff1603610635576040517f08c379a000000000000000000000000000000000000000000000000000000000815260040161062c90612778565b60405180910390fd5b8073ffffffffffffffffffffffffffffffffffffffff16610654610fb5565b73ffffffffffffffffffffffffffffffffffffffff16148061068357506106828161067d610fb5565b610d28565b5b6106c2576040517f08c379a00000000000000000000000000000000000000000000000000000000081526004016106b99061280a565b60405180910390fd5b6106cc8383610fbd565b505050565b6000600854905090565b6106ec6106e6610fb5565b82611076565b61072b576040517f08c379a00000000000000000000000000000000000000000000000000000000081526004016107229061289c565b60405180910390fd5b61073683838361110b565b505050565b61075683838360405180602001604052806000815250610bb4565b505050565b60008061076783611404565b9050600073ffffffffffffffffffffffffffffffffffffffff168173ffffffffffffffffffffffffffffffffffffffff16036107d8576040517f08c379a00000000000000000000000000000000000000000000000000000000081526004016107cf90612908565b60405180910390fd5b80915050919050565b60008073ffffffffffffffffffffffffffffffffffffffff168273ffffffffffffffffffffffffffffffffffffffff1603610851576040517f08c379a00000000000000000000000000000000000000000000000000000000081526004016108489061299a565b60405180910390fd5b600360008373ffffffffffffffffffffffffffffffffffffffff1673ffffffffffffffffffffffffffffffffffffffff168152602001908152602001600020549050919050565b6108a0611441565b6108aa60006114bf565b565b600a60205281600052604060002081815481106108c857600080fd5b90600052602060002001600091509150505481565b60006108e7611441565b6000600854905060086000815480929190610901906129e9565b91905055506109108482611585565b61091a81846117a2565b600a600960008673ffffffffffffffffffffffffffffffffffffffff1673ffffffffffffffffffffffffffffffffffffffff168152602001908152602001600020600082825461096a9190612a31565b92505081905550600a60008573ffffffffffffffffffffffffffffffffffffffff1673ffffffffffffffffffffffffffffffffffffffff1681526020019081526020016000208190806001815401808255809150506001900390600052602060002001600090919091909150558373ffffffffffffffffffffffffffffffffffffffff16817fde17b604cd6f20856cac28648e153aa478c580ba98c65d79786a821cb50b14af85600a604051610a21929190612aaa565b60405180910390a38091505092915050565b60096020528060005260406000206000915090505481565b6000600760009054906101000a900473ffffffffffffffffffffffffffffffffffffffff16905090565b6060600a60008373ffffffffffffffffffffffffffffffffffffffff1673ffffffffffffffffffffffffffffffffffffffff168152602001908152602001600020805480602002602001604051908101604052809291908181526020018280548015610b0057602002820191906000526020600020905b815481526020019060010190808311610aec575b50505050509050919050565b606060018054610b1b906126d5565b80601f0160208091040260200160405190810160405280929190818152602001828054610b47906126d5565b8015610b945780601f10610b6957610100808354040283529160200191610b94565b820191906000526020600020905b815481529060010190602001808311610b7757829003601f168201915b5050505050905090565b610bb0610ba9610fb5565b8383611846565b5050565b610bc5610bbf610fb5565b83611076565b610c04576040517f08c379a0000000000000000000000000000000000000000000000000000000008152600401610bfb9061289c565b60405180910390fd5b610c10848484846119b2565b50505050565b6060610c2182610f6a565b6000600660008481526020019081526020016000208054610c41906126d5565b80601f0160208091040260200160405190810160405280929190818152602001828054610c6d906126d5565b8015610cba5780601f10610c8f57610100808354040283529160200191610cba565b820191906000526020600020905b815481529060010190602001808311610c9d57829003601f168201915b505050505090506000610ccb611a0e565b90506000815103610ce0578192505050610d23565b600082511115610d15578082604051602001610cfd929190612b16565b60405160208183030381529060405292505050610d23565b610d1e84611a25565b925050505b919050565b6000600560008473ffffffffffffffffffffffffffffffffffffffff1673ffffffffffffffffffffffffffffffffffffffff16815260200190815260200160002060008373ffffffffffffffffffffffffffffffffffffffff1673ffffffffffffffffffffffffffffffffffffffff16815260200190815260200160002060009054906101000a900460ff16905092915050565b610dc4611441565b600073ffffffffffffffffffffffffffffffffffffffff168173ffffffffffffffffffffffffffffffffffffffff1603610e33576040517f08c379a0000000000000000000000000000000000000000000000000000000008152600401610e2a90612bac565b60405180910390fd5b610e3c816114bf565b50565b6000600960008373ffffffffffffffffffffffffffffffffffffffff1673ffffffffffffffffffffffffffffffffffffffff168152602001908152602001600020549050919050565b60007f80ac58cd000000000000000000000000000000000000000000000000000000007bffffffffffffffffffffffffffffffffffffffffffffffffffffffff1916827bffffffffffffffffffffffffffffffffffffffffffffffffffffffff19161480610f5357507f5b5e139f000000000000000000000000000000000000000000000000000000007bffffffffffffffffffffffffffffffffffffffffffffffffffffffff1916827bffffffffffffffffffffffffffffffffffffffffffffffffffffffff1916145b80610f635750610f6282611a8d565b5b9050919050565b610f7381611af7565b610fb2576040517f08c379a0000000000000000000000000000000000000000000000000000000008152600401610fa990612908565b60405180910390fd5b50565b600033905090565b816004600083815260200190815260200160002060006101000a81548173ffffffffffffffffffffffffffffffffffffffff021916908373ffffffffffffffffffffffffffffffffffffffff160217905550808273ffffffffffffffffffffffffffffffffffffffff166110308361075b565b73ffffffffffffffffffffffffffffffffffffffff167f8c5be1e5ebec7d5bd14f71427d1e84f3dd0314c0f7b2291e5b200ac8c7c3b92560405160405180910390a45050565b6000806110828361075b565b90508073ffffffffffffffffffffffffffffffffffffffff168473ffffffffffffffffffffffffffffffffffffffff1614806110c457506110c38185610d28565b5b8061110257508373ffffffffffffffffffffffffffffffffffffffff166110ea84610574565b73ffffffffffffffffffffffffffffffffffffffff16145b91505092915050565b8273ffffffffffffffffffffffffffffffffffffffff1661112b8261075b565b73ffffffffffffffffffffffffffffffffffffffff1614611181576040517f08c379a000000000000000000000000000000000000000000000000000000000815260040161117890612c3e565b60405180910390fd5b600073ffffffffffffffffffffffffffffffffffffffff168273ffffffffffffffffffffffffffffffffffffffff16036111f0576040517f08c379a00000000000000000000000000000000000000000000000000000000081526004016111e790612cd0565b60405180910390fd5b6111fd8383836001611b38565b8273ffffffffffffffffffffffffffffffffffffffff1661121d8261075b565b73ffffffffffffffffffffffffffffffffffffffff1614611273576040517f08c379a000000000000000000000000000000000000000000000000000000000815260040161126a90612c3e565b60405180910390fd5b6004600082815260200190815260200160002060006101000a81549073ffffffffffffffffffffffffffffffffffffffff02191690556001600360008573ffffffffffffffffffffffffffffffffffffffff1673ffffffffffffffffffffffffffffffffffffffff168152602001908152602001600020600082825403925050819055506001600360008473ffffffffffffffffffffffffffffffffffffffff1673ffffffffffffffffffffffffffffffffffffffff16815260200190815260200160002060008282540192505081905550816002600083815260200190815260200160002060006101000a81548173ffffffffffffffffffffffffffffffffffffffff021916908373ffffffffffffffffffffffffffffffffffffffff160217905550808273ffffffffffffffffffffffffffffffffffffffff168473ffffffffffffffffffffffffffffffffffffffff167fddf252ad1be2c89b69c2b068fc378daa952ba7f163c4a11628f55a4df523b3ef60405160405180910390a46113ff8383836001611b3e565b505050565b60006002600083815260200190815260200160002060009054906101000a900473ffffffffffffffffffffffffffffffffffffffff169050919050565b611449610fb5565b73ffffffffffffffffffffffffffffffffffffffff16611467610a4b565b73ffffffffffffffffffffffffffffffffffffffff16146114bd576040517f08c379a00000000000000000000000000000000000000000000000000000000081526004016114b490612d3c565b60405180910390fd5b565b6000600760009054906101000a900473ffffffffffffffffffffffffffffffffffffffff16905081600760006101000a81548173ffffffffffffffffffffffffffffffffffffffff021916908373ffffffffffffffffffffffffffffffffffffffff1602179055508173ffffffffffffffffffffffffffffffffffffffff168173ffffffffffffffffffffffffffffffffffffffff167f8be0079c531659141344cd1fd0a4f28419497f9722a3daafe3b4186f6b6457e060405160405180910390a35050565b600073ffffffffffffffffffffffffffffffffffffffff168273ffffffffffffffffffffffffffffffffffffffff16036115f4576040517f08c379a00000000000000000000000000000000000000000000000000000000081526004016115eb90612da8565b60405180910390fd5b6115fd81611af7565b1561163d576040517f08c379a000000000000000000000000000000000000000000000000000000000815260040161163490612e14565b60405180910390fd5b61164b600083836001611b38565b61165481611af7565b15611694576040517f08c379a000000000000000000000000000000000000000000000000000000000815260040161168b90612e14565b60405180910390fd5b6001600360008473ffffffffffffffffffffffffffffffffffffffff1673ffffffffffffffffffffffffffffffffffffffff16815260200190815260200160002060008282540192505081905550816002600083815260200190815260200160002060006101000a81548173ffffffffffffffffffffffffffffffffffffffff021916908373ffffffffffffffffffffffffffffffffffffffff160217905550808273ffffffffffffffffffffffffffffffffffffffff16600073ffffffffffffffffffffffffffffffffffffffff167fddf252ad1be2c89b69c2b068fc378daa952ba7f163c4a11628f55a4df523b3ef60405160405180910390a461179e600083836001611b3e565b5050565b6117ab82611af7565b6117ea576040517f08c379a00000000000000000000000000000000000000000000000000000000081526004016117e190612ea6565b60405180910390fd5b8060066000848152602001908152602001600020908161180a9190613068565b507ff8e1a15aba9398e019f0b49df1a4fde98ee17ae345cb5f6b5e2c27f5033e8ce78260405161183a91906121ca565b60405180910390a15050565b8173ffffffffffffffffffffffffffffffffffffffff168373ffffffffffffffffffffffffffffffffffffffff16036118b4576040517f08c379a00000000000000000000000000000000000000000000000000000000081526004016118ab90613186565b60405180910390fd5b80600560008573ffffffffffffffffffffffffffffffffffffffff1673ffffffffffffffffffffffffffffffffffffffff16815260200190815260200160002060008473ffffffffffffffffffffffffffffffffffffffff1673ffffffffffffffffffffffffffffffffffffffff16815260200190815260200160002060006101000a81548160ff0219169083151502179055508173ffffffffffffffffffffffffffffffffffffffff168373ffffffffffffffffffffffffffffffffffffffff167f17307eab39ab6107e8899845ad3d59bd9653f200f220920489ca2b5937696c31836040516119a59190611fc3565b60405180910390a3505050565b6119bd84848461110b565b6119c984848484611b44565b611a08576040517f08c379a00000000000000000000000000000000000000000000000000000000081526004016119ff90613218565b60405180910390fd5b50505050565b606060405180602001604052806000815250905090565b6060611a3082610f6a565b6000611a3a611a0e565b90506000815111611a5a5760405180602001604052806000815250611a85565b80611a6484611ccb565b604051602001611a75929190612b16565b6040516020818303038152906040525b915050919050565b60007f01ffc9a7000000000000000000000000000000000000000000000000000000007bffffffffffffffffffffffffffffffffffffffffffffffffffffffff1916827bffffffffffffffffffffffffffffffffffffffffffffffffffffffff1916149050919050565b60008073ffffffffffffffffffffffffffffffffffffffff16611b1983611404565b73ffffffffffffffffffffffffffffffffffffffff1614159050919050565b50505050565b50505050565b6000611b658473ffffffffffffffffffffffffffffffffffffffff16611d99565b15611cbe578373ffffffffffffffffffffffffffffffffffffffff1663150b7a02611b8e610fb5565b8786866040518563ffffffff1660e01b8152600401611bb0949392919061328d565b6020604051808303816000875af1925050508015611bec57506040513d601f19601f82011682018060405250810190611be991906132ee565b60015b611c6e573d8060008114611c1c576040519150601f19603f3d011682016040523d82523d6000602084013e611c21565b606091505b506000815103611c66576040517f08c379a0000000000000000000000000000000000000000000000000000000008152600401611c5d90613218565b60405180910390fd5b805181602001fd5b63150b7a0260e01b7bffffffffffffffffffffffffffffffffffffffffffffffffffffffff1916817bffffffffffffffffffffffffffffffffffffffffffffffffffffffff191614915050611cc3565b600190505b949350505050565b606060006001611cda84611dbc565b01905060008167ffffffffffffffff811115611cf957611cf861226f565b5b6040519080825280601f01601f191660200182016040528015611d2b5781602001600182028036833780820191505090505b509050600082602001820190505b600115611d8e578080600190039150507f3031323334353637383961626364656600000000000000000000000000000000600a86061a8153600a8581611d8257611d8161331b565b5b04945060008503611d39575b819350505050919050565b6000808273ffffffffffffffffffffffffffffffffffffffff163b119050919050565b600080600090507a184f03e93ff9f4daa797ed6e38ed64bf6a1f0100000000000000008310611e1a577a184f03e93ff9f4daa797ed6e38ed64bf6a1f0100000000000000008381611e1057611e0f61331b565b5b0492506040810190505b6d04ee2d6d415b85acef81000000008310611e57576d04ee2d6d415b85acef81000000008381611e4d57611e4c61331b565b5b0492506020810190505b662386f26fc100008310611e8657662386f26fc100008381611e7c57611e7b61331b565b5b0492506010810190505b6305f5e1008310611eaf576305f5e1008381611ea557611ea461331b565b5b0492506008810190505b6127108310611ed4576127108381611eca57611ec961331b565b5b0492506004810190505b60648310611ef75760648381611eed57611eec61331b565b5b0492506002810190505b600a8310611f06576001810190505b80915050919050565b6000604051905090565b600080fd5b600080fd5b60007fffffffff0000000000000000000000000000000000000000000000000000000082169050919050565b611f5881611f23565b8114611f6357600080fd5b50565b600081359050611f7581611f4f565b92915050565b600060208284031215611f9157611f90611f19565b5b6000611f9f84828501611f66565b91505092915050565b60008115159050919050565b611fbd81611fa8565b82525050565b6000602082019050611fd86000830184611fb4565b92915050565b600081519050919050565b600082825260208201905092915050565b60005b83811015612018578082015181840152602081019050611ffd565b60008484015250505050565b6000601f19601f8301169050919050565b600061204082611fde565b61204a8185611fe9565b935061205a818560208601611ffa565b61206381612024565b840191505092915050565b600060208201905081810360008301526120888184612035565b905092915050565b6000819050919050565b6120a381612090565b81146120ae57600080fd5b50565b6000813590506120c08161209a565b92915050565b6000602082840312156120dc576120db611f19565b5b60006120ea848285016120b1565b91505092915050565b600073ffffffffffffffffffffffffffffffffffffffff82169050919050565b600061211e826120f3565b9050919050565b61212e81612113565b82525050565b60006020820190506121496000830184612125565b92915050565b61215881612113565b811461216357600080fd5b50565b6000813590506121758161214f565b92915050565b6000806040838503121561219257612191611f19565b5b60006121a085828601612166565b92505060206121b1858286016120b1565b9150509250929050565b6121c481612090565b82525050565b60006020820190506121df60008301846121bb565b92915050565b6000806000606084860312156121fe576121fd611f19565b5b600061220c86828701612166565b935050602061221d86828701612166565b925050604061222e868287016120b1565b9150509250925092565b60006020828403121561224e5761224d611f19565b5b600061225c84828501612166565b91505092915050565b600080fd5b600080fd5b7f4e487b7100000000000000000000000000000000000000000000000000000000600052604160045260246000fd5b6122a782612024565b810181811067ffffffffffffffff821117156122c6576122c561226f565b5b80604052505050565b60006122d9611f0f565b90506122e5828261229e565b919050565b600067ffffffffffffffff8211156123055761230461226f565b5b61230e82612024565b9050602081019050919050565b82818337600083830152505050565b600061233d612338846122ea565b6122cf565b9050828152602081018484840111156123595761235861226a565b5b61236484828561231b565b509392505050565b600082601f83011261238157612380612265565b5b813561239184826020860161232a565b91505092915050565b600080604083850312156123b1576123b0611f19565b5b60006123bf85828601612166565b925050602083013567ffffffffffffffff8111156123e0576123df611f1e565b5b6123ec8582860161236c565b9150509250929050565b600081519050919050565b600082825260208201905092915050565b6000819050602082019050919050565b61242b81612090565b82525050565b600061243d8383612422565b60208301905092915050565b6000602082019050919050565b6000612461826123f6565b61246b8185612401565b935061247683612412565b8060005b838110156124a757815161248e8882612431565b975061249983612449565b92505060018101905061247a565b5085935050505092915050565b600060208201905081810360008301526124ce8184612456565b905092915050565b6124df81611fa8565b81146124ea57600080fd5b50565b6000813590506124fc816124d6565b92915050565b6000806040838503121561251957612518611f19565b5b600061252785828601612166565b9250506020612538858286016124ed565b9150509250929050565b600067ffffffffffffffff82111561255d5761255c61226f565b5b61256682612024565b9050602081019050919050565b600061258661258184612542565b6122cf565b9050828152602081018484840111156125a2576125a161226a565b5b6125ad84828561231b565b509392505050565b600082601f8301126125ca576125c9612265565b5b81356125da848260208601612573565b91505092915050565b600080600080608085870312156125fd576125fc611f19565b5b600061260b87828801612166565b945050602061261c87828801612166565b935050604061262d878288016120b1565b925050606085013567ffffffffffffffff81111561264e5761264d611f1e565b5b61265a878288016125b5565b91505092959194509250565b6000806040838503121561267d5761267c611f19565b5b600061268b85828601612166565b925050602061269c85828601612166565b9150509250929050565b7f4e487b7100000000000000000000000000000000000000000000000000000000600052602260045260246000fd5b600060028204905060018216806126ed57607f821691505b602082108103612700576126ff6126a6565b5b50919050565b7f4552433732313a20617070726f76616c20746f2063757272656e74206f776e6560008201527f7200000000000000000000000000000000000000000000000000000000000000602082015250565b6000612762602183611fe9565b915061276d82612706565b604082019050919050565b6000602082019050818103600083015261279181612755565b9050919050565b7f4552433732313a20617070726f76652063616c6c6572206973206e6f7420746f60008201527f6b656e206f776e6572206f7220617070726f76656420666f7220616c6c000000602082015250565b60006127f4603d83611fe9565b91506127ff82612798565b604082019050919050565b60006020820190508181036000830152612823816127e7565b9050919050565b7f4552433732313a2063616c6c6572206973206e6f7420746f6b656e206f776e6560008201527f72206f7220617070726f76656400000000000000000000000000000000000000602082015250565b6000612886602d83611fe9565b91506128918261282a565b604082019050919050565b600060208201905081810360008301526128b581612879565b9050919050565b7f4552433732313a20696e76616c696420746f6b656e2049440000000000000000600082015250565b60006128f2601883611fe9565b91506128fd826128bc565b602082019050919050565b60006020820190508181036000830152612921816128e5565b9050919050565b7f4552433732313a2061646472657373207a65726f206973206e6f74206120766160008201527f6c6964206f776e65720000000000000000000000000000000000000000000000602082015250565b6000612984602983611fe9565b915061298f82612928565b604082019050919050565b600060208201905081810360008301526129b381612977565b9050919050565b7f4e487b7100000000000000000000000000000000000000000000000000000000600052601160045260246000fd5b60006129f482612090565b91507fffffffffffffffffffffffffffffffffffffffffffffffffffffffffffffffff8203612a2657612a256129ba565b5b600182019050919050565b6000612a3c82612090565b9150612a4783612090565b9250828201905080821115612a5f57612a5e6129ba565b5b92915050565b6000819050919050565b6000819050919050565b6000612a94612a8f612a8a84612a65565b612a6f565b612090565b9050919050565b612aa481612a79565b82525050565b60006040820190508181036000830152612ac48185612035565b9050612ad36020830184612a9b565b9392505050565b600081905092915050565b6000612af082611fde565b612afa8185612ada565b9350612b0a818560208601611ffa565b80840191505092915050565b6000612b228285612ae5565b9150612b2e8284612ae5565b91508190509392505050565b7f4f776e61626c653a206e6577206f776e657220697320746865207a65726f206160008201527f6464726573730000000000000000000000000000000000000000000000000000602082015250565b6000612b96602683611fe9565b9150612ba182612b3a565b604082019050919050565b60006020820190508181036000830152612bc581612b89565b9050919050565b7f4552433732313a207472616e736665722066726f6d20696e636f72726563742060008201527f6f776e6572000000000000000000000000000000000000000000000000000000602082015250565b6000612c28602583611fe9565b9150612c3382612bcc565b604082019050919050565b60006020820190508181036000830152612c5781612c1b565b9050919050565b7f4552433732313a207472616e7366657220746f20746865207a65726f2061646460008201527f7265737300000000000000000000000000000000000000000000000000000000602082015250565b6000612cba602483611fe9565b9150612cc582612c5e565b604082019050919050565b60006020820190508181036000830152612ce981612cad565b9050919050565b7f4f776e61626c653a2063616c6c6572206973206e6f7420746865206f776e6572600082015250565b6000612d26602083611fe9565b9150612d3182612cf0565b602082019050919050565b60006020820190508181036000830152612d5581612d19565b9050919050565b7f4552433732313a206d696e7420746f20746865207a65726f2061646472657373600082015250565b6000612d92602083611fe9565b9150612d9d82612d5c565b602082019050919050565b60006020820190508181036000830152612dc181612d85565b9050919050565b7f4552433732313a20746f6b656e20616c7265616479206d696e74656400000000600082015250565b6000612dfe601c83611fe9565b9150612e0982612dc8565b602082019050919050565b60006020820190508181036000830152612e2d81612df1565b9050919050565b7f45524337323155524953746f726167653a2055524920736574206f66206e6f6e60008201527f6578697374656e7420746f6b656e000000000000000000000000000000000000602082015250565b6000612e90602e83611fe9565b9150612e9b82612e34565b604082019050919050565b60006020820190508181036000830152612ebf81612e83565b9050919050565b60008190508160005260206000209050919050565b60006020601f8301049050919050565b600082821b905092915050565b600060088302612f287fffffffffffffffffffffffffffffffffffffffffffffffffffffffffffffffff82612eeb565b612f328683612eeb565b95508019841693508086168417925050509392505050565b6000612f65612f60612f5b84612090565b612a6f565b612090565b9050919050565b6000819050919050565b612f7f83612f4a565b612f93612f8b82612f6c565b848454612ef8565b825550505050565b600090565b612fa8612f9b565b612fb3818484612f76565b505050565b5b81811015612fd757612fcc600082612fa0565b600181019050612fb9565b5050565b601f82111561301c57612fed81612ec6565b612ff684612edb565b81016020851015613005578190505b61301961301185612edb565b830182612fb8565b50505b505050565b600082821c905092915050565b600061303f60001984600802613021565b1980831691505092915050565b6000613058838361302e565b9150826002028217905092915050565b61307182611fde565b67ffffffffffffffff81111561308a5761308961226f565b5b61309482546126d5565b61309f828285612fdb565b600060209050601f8311600181146130d257600084156130c0578287015190505b6130ca858261304c565b865550613132565b601f1984166130e086612ec6565b60005b82811015613108578489015182556001820191506020850194506020810190506130e3565b868310156131255784890151613121601f89168261302e565b8355505b6001600288020188555050505b505050505050565b7f4552433732313a20617070726f766520746f2063616c6c657200000000000000600082015250565b6000613170601983611fe9565b915061317b8261313a565b602082019050919050565b6000602082019050818103600083015261319f81613163565b9050919050565b7f4552433732313a207472616e7366657220746f206e6f6e20455243373231526560008201527f63656976657220696d706c656d656e7465720000000000000000000000000000602082015250565b6000613202603283611fe9565b915061320d826131a6565b604082019050919050565b60006020820190508181036000830152613231816131f5565b9050919050565b600081519050919050565b600082825260208201905092915050565b600061325f82613238565b6132698185613243565b9350613279818560208601611ffa565b61328281612024565b840191505092915050565b60006080820190506132a26000830187612125565b6132af6020830186612125565b6132bc60408301856121bb565b81810360608301526132ce8184613254565b905095945050505050565b6000815190506132e881611f4f565b92915050565b60006020828403121561330457613303611f19565b5b6000613312848285016132d9565b91505092915050565b7f4e487b7100000000000000000000000000000000000000000000000000000000600052601260045260246000fdfea2646970667358221220989a44fb6262fc2fcb9aa109828ac37eee88925433a99a05d9c96fdc51b90ce764736f6c634300081e0033",
  "immutableReferences": {},
  "source": "// SPDX-License-Identifier: MIT\r\npragma solidity ^0.8.20;\r\n\r\nimport \"@openzeppelin/contracts/token/ERC721/extensions/ERC721URIStorage.sol\";\r\nimport \"@openzeppelin/contracts/access/Ownable.sol\";\r\n\r\ncontract EcoNexus is ERC721URIStorage, Ownable {\r\n    // Counter for Token IDs (starts at 0)\r\n    uint256 private _nextTokenId;\r\n\r\n    // --- 1. STATE VARIABLES ---\r\n    \r\n    // Rewards Balance: User Address -> ECO Amount\r\n    mapping(address => uint256) public ecoBalance;\r\n    \r\n    // User History: User Address -> Array of their Token IDs\r\n    mapping(address => uint256[]) public userContributions; \r\n\r\n    // --- 2. EVENTS ---\r\n    // FIXED: Removed lat, lon, and aqi. Only tracking ID, User, URI, and Reward.\r\n    event DataMinted(\r\n        uint256 indexed tokenId, \r\n        address indexed miner, \r\n        string tokenURI, \r\n        uint256 reward\r\n    );\r\n\r\n    // Constructor\r\n    constructor() ERC721(\"EcoPulse Data\", \"PULSE\") Ownable() {}\r\n\r\n    // --- 3. CORE FUNCTION: MINTING ---\r\n    // FIXED: Removed lat, lon, aqi arguments.\r\n    function submitData(\r\n        address _user,  \r\n        string memory _tokenURI\r\n    ) \r\n        public \r\n        onlyOwner \r\n        returns (uint256) \r\n    {\r\n        uint256 tokenId = _nextTokenId;\r\n        _nextTokenId++;\r\n\r\n        // A. Mint the NFT to the user\r\n        _mint(_user, tokenId);\r\n        _setTokenURI(tokenId, _tokenURI);\r\n\r\n        // B. Add Rewards (10 ECO per mint)\r\n        ecoBalance[_user] += 10;\r\n\r\n        // C. Record this ID in the user's personal list\r\n        userContributions[_user].push(tokenId);\r\n\r\n        // D. Emit Event (Simplified)\r\n        emit DataMinted(tokenId, _user, _tokenURI, 10);\r\n\r\n        return tokenId;\r\n    }\r\n\r\n    // --- 4. VIEW FUNCTIONS ---\r\n\r\n    function getUserTokenIds(address _user) public view returns (uint256[] memory) {\r\n        return userContributions[_user];\r\n    }\r\n\r\n    function getTotalMinted() public view returns (uint256) {\r\n        return _nextTokenId;\r\n    }\r\n\r\n    function getBalance(address _user) public view returns (uint256) {\r\n        return ecoBalance[_user];\r\n    }\r\n}",
  "sourcePath": "C:\\Users\\hp\\OneDrive\\Desktop\\Projects\\ECO.TWIN\\blockchain\\contracts\\EcoNexus.sol",
  "compiler": {
    "name": "solc",
    "version": "0.8.30+commit.73712a01.Emscripten.clang"
  },
  "schemaVersion": "3.4.16",
  "updatedAt": "2026-03-01T06:32:13.890Z",
  "networkType": "ethereum",
  "devdoc": {
    "events": {
      "Approval(address,address,uint256)": {
        "details": "Emitted when `owner` enables `approved` to manage the `tokenId` token."
      },
      "ApprovalForAll(address,address,bool)": {
        "details": "Emitted when `owner` enables or disables (`approved`) `operator` to manage all of its assets."
      },
      "BatchMetadataUpdate(uint256,uint256)": {
        "details": "This event emits when the metadata of a range of tokens is changed. So that the third-party platforms such as NFT market could timely update the images and related attributes of the NFTs."
      },
      "MetadataUpdate(uint256)": {
        "details": "This event emits when the metadata of a token is changed. So that the third-party platforms such as NFT market could timely update the images and related attributes of the NFT."
      },
      "Transfer(address,address,uint256)": {
        "details": "Emitted when `tokenId` token is transferred from `from` to `to`."
      }
    },
    "kind": "dev",
    "methods": {
      "approve(address,uint256)": {
        "details": "See {IERC721-approve}."
      },
      "balanceOf(address)": {
        "details": "See {IERC721-balanceOf}."
      },
      "getApproved(uint256)": {
        "details": "See {IERC721-getApproved}."
      },
      "isApprovedForAll(address,address)": {
        "details": "See {IERC721-isApprovedForAll}."
      },
      "name()": {
        "details": "See {IERC721Metadata-name}."
      },
      "owner()": {
        "details": "Returns the address of the current owner."
      },
      "ownerOf(uint256)": {
        "details": "See {IERC721-ownerOf}."
      },
      "renounceOwnership()": {
        "details": "Leaves the contract without owner. It will not be possible to call `onlyOwner` functions. Can only be called by the current owner. NOTE: Renouncing ownership will leave the contract without an owner, thereby disabling any functionality that is only available to the owner."
      },
      "safeTransferFrom(address,address,uint256)": {
        "details": "See {IERC721-safeTransferFrom}."
      },
      "safeTransferFrom(address,address,uint256,bytes)": {
        "details": "See {IERC721-safeTransferFrom}."
      },
      "setApprovalForAll(address,bool)": {
        "details": "See {IERC721-setApprovalForAll}."
      },
      "supportsInterface(bytes4)": {
        "details": "See {IERC165-supportsInterface}"
      },
      "symbol()": {
        "details": "See {IERC721Metadata-symbol}."
      },
      "tokenURI(uint256)": {
        "details": "See {IERC721Metadata-tokenURI}."
      },
      "transferFrom(address,address,uint256)": {
        "details": "See {IERC721-transferFrom}."
      },
      "transferOwnership(address)": {
        "details": "Transfers ownership of the contract to a new account (`newOwner`). Can only be called by the current owner."
      }
    },
    "version": 1
  },
  "userdoc": {
    "kind": "user",
    "methods": {},
    "version": 1
  }
}