{
  "contractName": "EcoNexus",
  "abi": [
    {
      "inputs": [],
      "stateMutability": "nonpayable",
      "type": "constructor"
    },
    {
      "anonymous": false,
      "inputs": [
        {
          "indexed": true,
          "internalType": "address",
          "name": "owner",
          "type": "address"
        },
        {
          "indexed": true,
          "internalType": "address",
          "name": "approved",
          "type": "address"
        },
        {
          "indexed": true,
          "internalType": "uint256",
          "name": "tokenId",
          "type": "uint256"
        }
      ],
      "name": "Approval",
      "type": "event"
    },
    {
      "anonymous": false,
      "inputs": [
        {
          "indexed": true,
          "internalType": "address",
          "name": "owner",
          "type": "address"
        },
        {
          "indexed": true,
          "internalType": "address",
          "name": "operator",
          "type": "address"
        },
        {
          "indexed": false,
          "internalType": "bool",
          "name": "approved",
          "type": "bool"
        }
      ],
      "name": "ApprovalForAll",
      "type": "event"
    },
    {
      "anonymous": false,
      "inputs": [
        {
          "indexed": false,
          "internalType": "uint256",
          "name": "_fromTokenId",
          "type": "uint256"
        },
        {
          "indexed": false,
          "internalType": "uint256",
          "name": "_toTokenId",
          "type": "uint256"
        }
      ],
      "name": "BatchMetadataUpdate",
      "type": "event"
    },
    {
      "anonymous": false,
      "inputs": [
        {
          "indexed": false,
          "internalType": "uint256",
          "name": "newTime",
          "type": "uint256"
        }
      ],
      "name": "CooldownChanged",
      "type": "event"
    },
    {
      "anonymous": false,
      "inputs": [
        {
          "indexed": true,
          "internalType": "uint256",
          "name": "tokenId",
          "type": "uint256"
        },
        {
          "indexed": true,
          "internalType": "address",
          "name": "miner",
          "type": "address"
        },
        {
          "indexed": false,
          "internalType": "int256",
          "name": "lat",
          "type": "int256"
        },
        {
          "indexed": false,
          "internalType": "int256",
          "name": "lon",
          "type": "int256"
        },
        {
          "indexed": false,
          "internalType": "uint256",
          "name": "aqi",
          "type": "uint256"
        },
        {
          "indexed": false,
          "internalType": "string",
          "name": "ipfsHash",
          "type": "string"
        }
      ],
      "name": "DataMinted",
      "type": "event"
    },
    {
      "anonymous": false,
      "inputs": [
        {
          "indexed": false,
          "internalType": "uint256",
          "name": "_tokenId",
          "type": "uint256"
        }
      ],
      "name": "MetadataUpdate",
      "type": "event"
    },
    {
      "anonymous": false,
      "inputs": [
        {
          "indexed": true,
          "internalType": "address",
          "name": "from",
          "type": "address"
        },
        {
          "indexed": true,
          "internalType": "address",
          "name": "to",
          "type": "address"
        },
        {
          "indexed": true,
          "internalType": "uint256",
          "name": "tokenId",
          "type": "uint256"
        }
      ],
      "name": "Transfer",
      "type": "event"
    },
    {
      "inputs": [
        {
          "internalType": "address",
          "name": "to",
          "type": "address"
        },
        {
          "internalType": "uint256",
          "name": "tokenId",
          "type": "uint256"
        }
      ],
      "name": "approve",
      "outputs": [],
      "stateMutability": "nonpayable",
      "type": "function"
    },
    {
      "inputs": [
        {
          "internalType": "address",
          "name": "owner",
          "type": "address"
        }
      ],
      "name": "balanceOf",
      "outputs": [
        {
          "internalType": "uint256",
          "name": "",
          "type": "uint256"
        }
      ],
      "stateMutability": "view",
      "type": "function",
      "constant": true
    },
    {
      "inputs": [],
      "name": "cooldownPeriod",
      "outputs": [
        {
          "internalType": "uint256",
          "name": "",
          "type": "uint256"
        }
      ],
      "stateMutability": "view",
      "type": "function",
      "constant": true
    },
    {
      "inputs": [
        {
          "internalType": "address",
          "name": "",
          "type": "address"
        }
      ],
      "name": "ecoBalance",
      "outputs": [
        {
          "internalType": "uint256",
          "name": "",
          "type": "uint256"
        }
      ],
      "stateMutability": "view",
      "type": "function",
      "constant": true
    },
    {
      "inputs": [
        {
          "internalType": "uint256",
          "name": "tokenId",
          "type": "uint256"
        }
      ],
      "name": "getApproved",
      "outputs": [
        {
          "internalType": "address",
          "name": "",
          "type": "address"
        }
      ],
      "stateMutability": "view",
      "type": "function",
      "constant": true
    },
    {
      "inputs": [
        {
          "internalType": "address",
          "name": "owner",
          "type": "address"
        },
        {
          "internalType": "address",
          "name": "operator",
          "type": "address"
        }
      ],
      "name": "isApprovedForAll",
      "outputs": [
        {
          "internalType": "bool",
          "name": "",
          "type": "bool"
        }
      ],
      "stateMutability": "view",
      "type": "function",
      "constant": true
    },
    {
      "inputs": [
        {
          "internalType": "address",
          "name": "",
          "type": "address"
        }
      ],
      "name": "lastMintTime",
      "outputs": [
        {
          "internalType": "uint256",
          "name": "",
          "type": "uint256"
        }
      ],
      "stateMutability": "view",
      "type": "function",
      "constant": true
    },
    {
      "inputs": [],
      "name": "name",
      "outputs": [
        {
          "internalType": "string",
          "name": "",
          "type": "string"
        }
      ],
      "stateMutability": "view",
      "type": "function",
      "constant": true
    },
    {
      "inputs": [],
      "name": "owner",
      "outputs": [
        {
          "internalType": "address",
          "name": "",
          "type": "address"
        }
      ],
      "stateMutability": "view",
      "type": "function",
      "constant": true
    },
    {
      "inputs": [
        {
          "internalType": "uint256",
          "name": "tokenId",
          "type": "uint256"
        }
      ],
      "name": "ownerOf",
      "outputs": [
        {
          "internalType": "address",
          "name": "",
          "type": "address"
        }
      ],
      "stateMutability": "view",
      "type": "function",
      "constant": true
    },
    {
      "inputs": [
        {
          "internalType": "address",
          "name": "from",
          "type": "address"
        },
        {
          "internalType": "address",
          "name": "to",
          "type": "address"
        },
        {
          "internalType": "uint256",
          "name": "tokenId",
          "type": "uint256"
        }
      ],
      "name": "safeTransferFrom",
      "outputs": [],
      "stateMutability": "nonpayable",
      "type": "function"
    },
    {
      "inputs": [
        {
          "internalType": "address",
          "name": "from",
          "type": "address"
        },
        {
          "internalType": "address",
          "name": "to",
          "type": "address"
        },
        {
          "internalType": "uint256",
          "name": "tokenId",
          "type": "uint256"
        },
        {
          "internalType": "bytes",
          "name": "data",
          "type": "bytes"
        }
      ],
      "name": "safeTransferFrom",
      "outputs": [],
      "stateMutability": "nonpayable",
      "type": "function"
    },
    {
      "inputs": [
        {
          "internalType": "address",
          "name": "operator",
          "type": "address"
        },
        {
          "internalType": "bool",
          "name": "approved",
          "type": "bool"
        }
      ],
      "name": "setApprovalForAll",
      "outputs": [],
      "stateMutability": "nonpayable",
      "type": "function"
    },
    {
      "inputs": [
        {
          "internalType": "bytes4",
          "name": "interfaceId",
          "type": "bytes4"
        }
      ],
      "name": "supportsInterface",
      "outputs": [
        {
          "internalType": "bool",
          "name": "",
          "type": "bool"
        }
      ],
      "stateMutability": "view",
      "type": "function",
      "constant": true
    },
    {
      "inputs": [],
      "name": "symbol",
      "outputs": [
        {
          "internalType": "string",
          "name": "",
          "type": "string"
        }
      ],
      "stateMutability": "view",
      "type": "function",
      "constant": true
    },
    {
      "inputs": [
        {
          "internalType": "uint256",
          "name": "tokenId",
          "type": "uint256"
        }
      ],
      "name": "tokenURI",
      "outputs": [
        {
          "internalType": "string",
          "name": "",
          "type": "string"
        }
      ],
      "stateMutability": "view",
      "type": "function",
      "constant": true
    },
    {
      "inputs": [
        {
          "internalType": "address",
          "name": "from",
          "type": "address"
        },
        {
          "internalType": "address",
          "name": "to",
          "type": "address"
        },
        {
          "internalType": "uint256",
          "name": "tokenId",
          "type": "uint256"
        }
      ],
      "name": "transferFrom",
      "outputs": [],
      "stateMutability": "nonpayable",
      "type": "function"
    },
    {
      "inputs": [
        {
          "internalType": "uint256",
          "name": "_newSeconds",
          "type": "uint256"
        }
      ],
      "name": "setCooldown",
      "outputs": [],
      "stateMutability": "nonpayable",
      "type": "function"
    },
    {
      "inputs": [
        {
          "internalType": "int256",
          "name": "_lat",
          "type": "int256"
        },
        {
          "internalType": "int256",
          "name": "_lon",
          "type": "int256"
        },
        {
          "internalType": "uint256",
          "name": "_aqi",
          "type": "uint256"
        },
        {
          "internalType": "string",
          "name": "_tokenURI",
          "type": "string"
        }
      ],
      "name": "submitData",
      "outputs": [
        {
          "internalType": "uint256",
          "name": "",
          "type": "uint256"
        }
      ],
      "stateMutability": "nonpayable",
      "type": "function"
    },
    {
      "inputs": [
        {
          "internalType": "address",
          "name": "_user",
          "type": "address"
        }
      ],
      "name": "getTimeUntilNextMint",
      "outputs": [
        {
          "internalType": "uint256",
          "name": "",
          "type": "uint256"
        }
      ],
      "stateMutability": "view",
      "type": "function",
      "constant": true
    }
  ],
  "bytecode": "0x6080604052603c600a5534801561001557600080fd5b506040518060400160405280600d81526020017f45636f50756c73652044617461000000000000000000000000000000000000008152506040518060400160405280600581526020017f50554c53450000000000000000000000000000000000000000000000000000008152508160009081610091919061033a565b5080600190816100a1919061033a565b50505033600b60006101000a81548173ffffffffffffffffffffffffffffffffffffffff021916908373ffffffffffffffffffffffffffffffffffffffff16021790555061040c565b600081519050919050565b7f4e487b7100000000000000000000000000000000000000000000000000000000600052604160045260246000fd5b7f4e487b7100000000000000000000000000000000000000000000000000000000600052602260045260246000fd5b6000600282049050600182168061016b57607f821691505b60208210810361017e5761017d610124565b5b50919050565b60008190508160005260206000209050919050565b60006020601f8301049050919050565b600082821b905092915050565b6000600883026101e67fffffffffffffffffffffffffffffffffffffffffffffffffffffffffffffffff826101a9565b6101f086836101a9565b95508019841693508086168417925050509392505050565b6000819050919050565b6000819050919050565b600061023761023261022d84610208565b610212565b610208565b9050919050565b6000819050919050565b6102518361021c565b61026561025d8261023e565b8484546101b6565b825550505050565b600090565b61027a61026d565b610285818484610248565b505050565b5b818110156102a95761029e600082610272565b60018101905061028b565b5050565b601f8211156102ee576102bf81610184565b6102c884610199565b810160208510156102d7578190505b6102eb6102e385610199565b83018261028a565b50505b505050565b600082821c905092915050565b6000610311600019846008026102f3565b1980831691505092915050565b600061032a8383610300565b9150826002028217905092915050565b610343826100ea565b67ffffffffffffffff81111561035c5761035b6100f5565b5b6103668254610153565b6103718282856102ad565b600060209050601f8311600181146103a45760008415610392578287015190505b61039c858261031e565b865550610404565b601f1984166103b286610184565b60005b828110156103da578489015182556001820191506020850194506020810190506103b5565b868310156103f757848901516103f3601f891682610300565b8355505b6001600288020188555050505b505050505050565b61319c8061041b6000396000f3fe608060405234801561001057600080fd5b506004361061012b5760003560e01c80636352211e116100ad57806395d89b411161007157806395d89b411461037a578063a22cb46514610398578063b88d4fde146103b4578063c87b56dd146103d0578063e985e9c5146104005761012b565b80636352211e1461029c5780636aa71d18146102cc57806370a08231146102fc57806388bfc4c91461032c5780638da5cb5b1461035c5761012b565b8063095ea7b3116100f4578063095ea7b3146101fc57806323b872dd1461021857806327f923261461023457806342842e0e146102645780634fc3f41a146102805761012b565b80624a639f1461013057806301ffc9a71461016057806304646a491461019057806306fdde03146101ae578063081812fc146101cc575b600080fd5b61014a60048036038101906101459190611fbe565b610430565b6040516101579190612050565b60405180910390f35b61017a600480360381019061017591906120c3565b6105e9565b604051610187919061210b565b60405180910390f35b61019861064a565b6040516101a59190612050565b60405180910390f35b6101b6610650565b6040516101c391906121a5565b60405180910390f35b6101e660048036038101906101e191906121c7565b6106e2565b6040516101f39190612235565b60405180910390f35b6102166004803603810190610211919061227c565b610728565b005b610232600480360381019061022d91906122bc565b61083f565b005b61024e6004803603810190610249919061230f565b61089f565b60405161025b9190612050565b60405180910390f35b61027e600480360381019061027991906122bc565b61095d565b005b61029a600480360381019061029591906121c7565b61097d565b005b6102b660048036038101906102b191906121c7565b610a4e565b6040516102c39190612235565b60405180910390f35b6102e660048036038101906102e1919061230f565b610ad4565b6040516102f39190612050565b60405180910390f35b6103166004803603810190610311919061230f565b610aec565b6040516103239190612050565b60405180910390f35b6103466004803603810190610341919061230f565b610ba3565b6040516103539190612050565b60405180910390f35b610364610bbb565b6040516103719190612235565b60405180910390f35b610382610be1565b60405161038f91906121a5565b60405180910390f35b6103b260048036038101906103ad9190612368565b610c73565b005b6103ce60048036038101906103c99190612449565b610c89565b005b6103ea60048036038101906103e591906121c7565b610ceb565b6040516103f791906121a5565b60405180910390f35b61041a600480360381019061041591906124cc565b610dfd565b604051610427919061210b565b60405180910390f35b6000600a54600960003373ffffffffffffffffffffffffffffffffffffffff1673ffffffffffffffffffffffffffffffffffffffff1681526020019081526020016000205461047f919061253b565b4210156104c1576040517f08c379a00000000000000000000000000000000000000000000000000000000081526004016104b8906125bb565b60405180910390fd5b6104cb6007610e91565b60006104d76007610ea7565b90506104e33382610eb5565b6104ed81846110d2565b600a600860003373ffffffffffffffffffffffffffffffffffffffff1673ffffffffffffffffffffffffffffffffffffffff168152602001908152602001600020600082825461053d919061253b565b9250508190555042600960003373ffffffffffffffffffffffffffffffffffffffff1673ffffffffffffffffffffffffffffffffffffffff168152602001908152602001600020819055503373ffffffffffffffffffffffffffffffffffffffff16817fcf5c6dfc74c031db5ef08a1c1be18c21377808c6f0bab1aa3e678a8e56b0c4a7888888886040516105d594939291906125ea565b60405180910390a380915050949350505050565b6000634906490660e01b7bffffffffffffffffffffffffffffffffffffffffffffffffffffffff1916827bffffffffffffffffffffffffffffffffffffffffffffffffffffffff19161480610643575061064282611176565b5b9050919050565b600a5481565b60606000805461065f90612665565b80601f016020809104026020016040519081016040528092919081815260200182805461068b90612665565b80156106d85780601f106106ad576101008083540402835291602001916106d8565b820191906000526020600020905b8154815290600101906020018083116106bb57829003601f168201915b5050505050905090565b60006106ed82611258565b6004600083815260200190815260200160002060009054906101000a900473ffffffffffffffffffffffffffffffffffffffff169050919050565b600061073382610a4e565b90508073ffffffffffffffffffffffffffffffffffffffff168373ffffffffffffffffffffffffffffffffffffffff16036107a3576040517f08c379a000000000000000000000000000000000000000000000000000000000815260040161079a90612708565b60405180910390fd5b8073ffffffffffffffffffffffffffffffffffffffff166107c26112a3565b73ffffffffffffffffffffffffffffffffffffffff1614806107f157506107f0816107eb6112a3565b610dfd565b5b610830576040517f08c379a00000000000000000000000000000000000000000000000000000000081526004016108279061279a565b60405180910390fd5b61083a83836112ab565b505050565b61085061084a6112a3565b82611364565b61088f576040517f08c379a00000000000000000000000000000000000000000000000000000000081526004016108869061282c565b60405180910390fd5b61089a8383836113f9565b505050565b6000600a54600960008473ffffffffffffffffffffffffffffffffffffffff1673ffffffffffffffffffffffffffffffffffffffff168152602001908152602001600020546108ee919061253b565b42106108fd5760009050610958565b42600a54600960008573ffffffffffffffffffffffffffffffffffffffff1673ffffffffffffffffffffffffffffffffffffffff1681526020019081526020016000205461094b919061253b565b610955919061284c565b90505b919050565b61097883838360405180602001604052806000815250610c89565b505050565b600b60009054906101000a900473ffffffffffffffffffffffffffffffffffffffff1673ffffffffffffffffffffffffffffffffffffffff163373ffffffffffffffffffffffffffffffffffffffff1614610a0d576040517f08c379a0000000000000000000000000000000000000000000000000000000008152600401610a04906128cc565b60405180910390fd5b80600a819055507faa382e040a4d9efeb5a813fb9d768cb574053b0dfd7cdf78936a29006e0a7a1c81604051610a439190612050565b60405180910390a150565b600080610a5a836116f2565b9050600073ffffffffffffffffffffffffffffffffffffffff168173ffffffffffffffffffffffffffffffffffffffff1603610acb576040517f08c379a0000000000000000000000000000000000000000000000000000000008152600401610ac290612938565b60405180910390fd5b80915050919050565b60096020528060005260406000206000915090505481565b60008073ffffffffffffffffffffffffffffffffffffffff168273ffffffffffffffffffffffffffffffffffffffff1603610b5c576040517f08c379a0000000000000000000000000000000000000000000000000000000008152600401610b53906129ca565b60405180910390fd5b600360008373ffffffffffffffffffffffffffffffffffffffff1673ffffffffffffffffffffffffffffffffffffffff168152602001908152602001600020549050919050565b60086020528060005260406000206000915090505481565b600b60009054906101000a900473ffffffffffffffffffffffffffffffffffffffff1681565b606060018054610bf090612665565b80601f0160208091040260200160405190810160405280929190818152602001828054610c1c90612665565b8015610c695780601f10610c3e57610100808354040283529160200191610c69565b820191906000526020600020905b815481529060010190602001808311610c4c57829003601f168201915b5050505050905090565b610c85610c7e6112a3565b838361172f565b5050565b610c9a610c946112a3565b83611364565b610cd9576040517f08c379a0000000000000000000000000000000000000000000000000000000008152600401610cd09061282c565b60405180910390fd5b610ce58484848461189b565b50505050565b6060610cf682611258565b6000600660008481526020019081526020016000208054610d1690612665565b80601f0160208091040260200160405190810160405280929190818152602001828054610d4290612665565b8015610d8f5780601f10610d6457610100808354040283529160200191610d8f565b820191906000526020600020905b815481529060010190602001808311610d7257829003601f168201915b505050505090506000610da06118f7565b90506000815103610db5578192505050610df8565b600082511115610dea578082604051602001610dd2929190612a26565b60405160208183030381529060405292505050610df8565b610df38461190e565b925050505b919050565b6000600560008473ffffffffffffffffffffffffffffffffffffffff1673ffffffffffffffffffffffffffffffffffffffff16815260200190815260200160002060008373ffffffffffffffffffffffffffffffffffffffff1673ffffffffffffffffffffffffffffffffffffffff16815260200190815260200160002060009054906101000a900460ff16905092915050565b6001816000016000828254019250508190555050565b600081600001549050919050565b600073ffffffffffffffffffffffffffffffffffffffff168273ffffffffffffffffffffffffffffffffffffffff1603610f24576040517f08c379a0000000000000000000000000000000000000000000000000000000008152600401610f1b90612a96565b60405180910390fd5b610f2d81611976565b15610f6d576040517f08c379a0000000000000000000000000000000000000000000000000000000008152600401610f6490612b02565b60405180910390fd5b610f7b6000838360016119b7565b610f8481611976565b15610fc4576040517f08c379a0000000000000000000000000000000000000000000000000000000008152600401610fbb90612b02565b60405180910390fd5b6001600360008473ffffffffffffffffffffffffffffffffffffffff1673ffffffffffffffffffffffffffffffffffffffff16815260200190815260200160002060008282540192505081905550816002600083815260200190815260200160002060006101000a81548173ffffffffffffffffffffffffffffffffffffffff021916908373ffffffffffffffffffffffffffffffffffffffff160217905550808273ffffffffffffffffffffffffffffffffffffffff16600073ffffffffffffffffffffffffffffffffffffffff167fddf252ad1be2c89b69c2b068fc378daa952ba7f163c4a11628f55a4df523b3ef60405160405180910390a46110ce6000838360016119bd565b5050565b6110db82611976565b61111a576040517f08c379a000000000000000000000000000000000000000000000000000000000815260040161111190612b94565b60405180910390fd5b8060066000848152602001908152602001600020908161113a9190612d60565b507ff8e1a15aba9398e019f0b49df1a4fde98ee17ae345cb5f6b5e2c27f5033e8ce78260405161116a9190612050565b60405180910390a15050565b60007f80ac58cd000000000000000000000000000000000000000000000000000000007bffffffffffffffffffffffffffffffffffffffffffffffffffffffff1916827bffffffffffffffffffffffffffffffffffffffffffffffffffffffff1916148061124157507f5b5e139f000000000000000000000000000000000000000000000000000000007bffffffffffffffffffffffffffffffffffffffffffffffffffffffff1916827bffffffffffffffffffffffffffffffffffffffffffffffffffffffff1916145b806112515750611250826119c3565b5b9050919050565b61126181611976565b6112a0576040517f08c379a000000000000000000000000000000000000000000000000000000000815260040161129790612938565b60405180910390fd5b50565b600033905090565b816004600083815260200190815260200160002060006101000a81548173ffffffffffffffffffffffffffffffffffffffff021916908373ffffffffffffffffffffffffffffffffffffffff160217905550808273ffffffffffffffffffffffffffffffffffffffff1661131e83610a4e565b73ffffffffffffffffffffffffffffffffffffffff167f8c5be1e5ebec7d5bd14f71427d1e84f3dd0314c0f7b2291e5b200ac8c7c3b92560405160405180910390a45050565b60008061137083610a4e565b90508073ffffffffffffffffffffffffffffffffffffffff168473ffffffffffffffffffffffffffffffffffffffff1614806113b257506113b18185610dfd565b5b806113f057508373ffffffffffffffffffffffffffffffffffffffff166113d8846106e2565b73ffffffffffffffffffffffffffffffffffffffff16145b91505092915050565b8273ffffffffffffffffffffffffffffffffffffffff1661141982610a4e565b73ffffffffffffffffffffffffffffffffffffffff161461146f576040517f08c379a000000000000000000000000000000000000000000000000000000000815260040161146690612ea4565b60405180910390fd5b600073ffffffffffffffffffffffffffffffffffffffff168273ffffffffffffffffffffffffffffffffffffffff16036114de576040517f08c379a00000000000000000000000000000000000000000000000000000000081526004016114d590612f36565b60405180910390fd5b6114eb83838360016119b7565b8273ffffffffffffffffffffffffffffffffffffffff1661150b82610a4e565b73ffffffffffffffffffffffffffffffffffffffff1614611561576040517f08c379a000000000000000000000000000000000000000000000000000000000815260040161155890612ea4565b60405180910390fd5b6004600082815260200190815260200160002060006101000a81549073ffffffffffffffffffffffffffffffffffffffff02191690556001600360008573ffffffffffffffffffffffffffffffffffffffff1673ffffffffffffffffffffffffffffffffffffffff168152602001908152602001600020600082825403925050819055506001600360008473ffffffffffffffffffffffffffffffffffffffff1673ffffffffffffffffffffffffffffffffffffffff16815260200190815260200160002060008282540192505081905550816002600083815260200190815260200160002060006101000a81548173ffffffffffffffffffffffffffffffffffffffff021916908373ffffffffffffffffffffffffffffffffffffffff160217905550808273ffffffffffffffffffffffffffffffffffffffff168473ffffffffffffffffffffffffffffffffffffffff167fddf252ad1be2c89b69c2b068fc378daa952ba7f163c4a11628f55a4df523b3ef60405160405180910390a46116ed83838360016119bd565b505050565b60006002600083815260200190815260200160002060009054906101000a900473ffffffffffffffffffffffffffffffffffffffff169050919050565b8173ffffffffffffffffffffffffffffffffffffffff168373ffffffffffffffffffffffffffffffffffffffff160361179d576040517f08c379a000000000000000000000000000000000000000000000000000000000815260040161179490612fa2565b60405180910390fd5b80600560008573ffffffffffffffffffffffffffffffffffffffff1673ffffffffffffffffffffffffffffffffffffffff16815260200190815260200160002060008473ffffffffffffffffffffffffffffffffffffffff1673ffffffffffffffffffffffffffffffffffffffff16815260200190815260200160002060006101000a81548160ff0219169083151502179055508173ffffffffffffffffffffffffffffffffffffffff168373ffffffffffffffffffffffffffffffffffffffff167f17307eab39ab6107e8899845ad3d59bd9653f200f220920489ca2b5937696c318360405161188e919061210b565b60405180910390a3505050565b6118a68484846113f9565b6118b284848484611a2d565b6118f1576040517f08c379a00000000000000000000000000000000000000000000000000000000081526004016118e890613034565b60405180910390fd5b50505050565b606060405180602001604052806000815250905090565b606061191982611258565b60006119236118f7565b90506000815111611943576040518060200160405280600081525061196e565b8061194d84611bb4565b60405160200161195e929190612a26565b6040516020818303038152906040525b915050919050565b60008073ffffffffffffffffffffffffffffffffffffffff16611998836116f2565b73ffffffffffffffffffffffffffffffffffffffff1614159050919050565b50505050565b50505050565b60007f01ffc9a7000000000000000000000000000000000000000000000000000000007bffffffffffffffffffffffffffffffffffffffffffffffffffffffff1916827bffffffffffffffffffffffffffffffffffffffffffffffffffffffff1916149050919050565b6000611a4e8473ffffffffffffffffffffffffffffffffffffffff16611c82565b15611ba7578373ffffffffffffffffffffffffffffffffffffffff1663150b7a02611a776112a3565b8786866040518563ffffffff1660e01b8152600401611a9994939291906130a9565b6020604051808303816000875af1925050508015611ad557506040513d601f19601f82011682018060405250810190611ad2919061310a565b60015b611b57573d8060008114611b05576040519150601f19603f3d011682016040523d82523d6000602084013e611b0a565b606091505b506000815103611b4f576040517f08c379a0000000000000000000000000000000000000000000000000000000008152600401611b4690613034565b60405180910390fd5b805181602001fd5b63150b7a0260e01b7bffffffffffffffffffffffffffffffffffffffffffffffffffffffff1916817bffffffffffffffffffffffffffffffffffffffffffffffffffffffff191614915050611bac565b600190505b949350505050565b606060006001611bc384611ca5565b01905060008167ffffffffffffffff811115611be257611be1611e93565b5b6040519080825280601f01601f191660200182016040528015611c145781602001600182028036833780820191505090505b509050600082602001820190505b600115611c77578080600190039150507f3031323334353637383961626364656600000000000000000000000000000000600a86061a8153600a8581611c6b57611c6a613137565b5b04945060008503611c22575b819350505050919050565b6000808273ffffffffffffffffffffffffffffffffffffffff163b119050919050565b600080600090507a184f03e93ff9f4daa797ed6e38ed64bf6a1f0100000000000000008310611d03577a184f03e93ff9f4daa797ed6e38ed64bf6a1f0100000000000000008381611cf957611cf8613137565b5b0492506040810190505b6d04ee2d6d415b85acef81000000008310611d40576d04ee2d6d415b85acef81000000008381611d3657611d35613137565b5b0492506020810190505b662386f26fc100008310611d6f57662386f26fc100008381611d6557611d64613137565b5b0492506010810190505b6305f5e1008310611d98576305f5e1008381611d8e57611d8d613137565b5b0492506008810190505b6127108310611dbd576127108381611db357611db2613137565b5b0492506004810190505b60648310611de05760648381611dd657611dd5613137565b5b0492506002810190505b600a8310611def576001810190505b80915050919050565b6000604051905090565b600080fd5b600080fd5b6000819050919050565b611e1f81611e0c565b8114611e2a57600080fd5b50565b600081359050611e3c81611e16565b92915050565b6000819050919050565b611e5581611e42565b8114611e6057600080fd5b50565b600081359050611e7281611e4c565b92915050565b600080fd5b600080fd5b6000601f19601f8301169050919050565b7f4e487b7100000000000000000000000000000000000000000000000000000000600052604160045260246000fd5b611ecb82611e82565b810181811067ffffffffffffffff82111715611eea57611ee9611e93565b5b80604052505050565b6000611efd611df8565b9050611f098282611ec2565b919050565b600067ffffffffffffffff821115611f2957611f28611e93565b5b611f3282611e82565b9050602081019050919050565b82818337600083830152505050565b6000611f61611f5c84611f0e565b611ef3565b905082815260208101848484011115611f7d57611f7c611e7d565b5b611f88848285611f3f565b509392505050565b600082601f830112611fa557611fa4611e78565b5b8135611fb5848260208601611f4e565b91505092915050565b60008060008060808587031215611fd857611fd7611e02565b5b6000611fe687828801611e2d565b9450506020611ff787828801611e2d565b935050604061200887828801611e63565b925050606085013567ffffffffffffffff81111561202957612028611e07565b5b61203587828801611f90565b91505092959194509250565b61204a81611e42565b82525050565b60006020820190506120656000830184612041565b92915050565b60007fffffffff0000000000000000000000000000000000000000000000000000000082169050919050565b6120a08161206b565b81146120ab57600080fd5b50565b6000813590506120bd81612097565b92915050565b6000602082840312156120d9576120d8611e02565b5b60006120e7848285016120ae565b91505092915050565b60008115159050919050565b612105816120f0565b82525050565b600060208201905061212060008301846120fc565b92915050565b600081519050919050565b600082825260208201905092915050565b60005b83811015612160578082015181840152602081019050612145565b60008484015250505050565b600061217782612126565b6121818185612131565b9350612191818560208601612142565b61219a81611e82565b840191505092915050565b600060208201905081810360008301526121bf818461216c565b905092915050565b6000602082840312156121dd576121dc611e02565b5b60006121eb84828501611e63565b91505092915050565b600073ffffffffffffffffffffffffffffffffffffffff82169050919050565b600061221f826121f4565b9050919050565b61222f81612214565b82525050565b600060208201905061224a6000830184612226565b92915050565b61225981612214565b811461226457600080fd5b50565b60008135905061227681612250565b92915050565b6000806040838503121561229357612292611e02565b5b60006122a185828601612267565b92505060206122b285828601611e63565b9150509250929050565b6000806000606084860312156122d5576122d4611e02565b5b60006122e386828701612267565b93505060206122f486828701612267565b925050604061230586828701611e63565b9150509250925092565b60006020828403121561232557612324611e02565b5b600061233384828501612267565b91505092915050565b612345816120f0565b811461235057600080fd5b50565b6000813590506123628161233c565b92915050565b6000806040838503121561237f5761237e611e02565b5b600061238d85828601612267565b925050602061239e85828601612353565b9150509250929050565b600067ffffffffffffffff8211156123c3576123c2611e93565b5b6123cc82611e82565b9050602081019050919050565b60006123ec6123e7846123a8565b611ef3565b90508281526020810184848401111561240857612407611e7d565b5b612413848285611f3f565b509392505050565b600082601f8301126124305761242f611e78565b5b81356124408482602086016123d9565b91505092915050565b6000806000806080858703121561246357612462611e02565b5b600061247187828801612267565b945050602061248287828801612267565b935050604061249387828801611e63565b925050606085013567ffffffffffffffff8111156124b4576124b3611e07565b5b6124c08782880161241b565b91505092959194509250565b600080604083850312156124e3576124e2611e02565b5b60006124f185828601612267565b925050602061250285828601612267565b9150509250929050565b7f4e487b7100000000000000000000000000000000000000000000000000000000600052601160045260246000fd5b600061254682611e42565b915061255183611e42565b92508282019050808211156125695761256861250c565b5b92915050565b7f436f6f6c646f776e206163746976653a20506c65617365207761697421000000600082015250565b60006125a5601d83612131565b91506125b08261256f565b602082019050919050565b600060208201905081810360008301526125d481612598565b9050919050565b6125e481611e0c565b82525050565b60006080820190506125ff60008301876125db565b61260c60208301866125db565b6126196040830185612041565b818103606083015261262b818461216c565b905095945050505050565b7f4e487b7100000000000000000000000000000000000000000000000000000000600052602260045260246000fd5b6000600282049050600182168061267d57607f821691505b6020821081036126905761268f612636565b5b50919050565b7f4552433732313a20617070726f76616c20746f2063757272656e74206f776e6560008201527f7200000000000000000000000000000000000000000000000000000000000000602082015250565b60006126f2602183612131565b91506126fd82612696565b604082019050919050565b60006020820190508181036000830152612721816126e5565b9050919050565b7f4552433732313a20617070726f76652063616c6c6572206973206e6f7420746f60008201527f6b656e206f776e6572206f7220617070726f76656420666f7220616c6c000000602082015250565b6000612784603d83612131565b915061278f82612728565b604082019050919050565b600060208201905081810360008301526127b381612777565b9050919050565b7f4552433732313a2063616c6c6572206973206e6f7420746f6b656e206f776e6560008201527f72206f7220617070726f76656400000000000000000000000000000000000000602082015250565b6000612816602d83612131565b9150612821826127ba565b604082019050919050565b6000602082019050818103600083015261284581612809565b9050919050565b600061285782611e42565b915061286283611e42565b925082820390508181111561287a5761287961250c565b5b92915050565b7f4f6e6c7920746865204f776e65722063616e20646f2074686973210000000000600082015250565b60006128b6601b83612131565b91506128c182612880565b602082019050919050565b600060208201905081810360008301526128e5816128a9565b9050919050565b7f4552433732313a20696e76616c696420746f6b656e2049440000000000000000600082015250565b6000612922601883612131565b915061292d826128ec565b602082019050919050565b6000602082019050818103600083015261295181612915565b9050919050565b7f4552433732313a2061646472657373207a65726f206973206e6f74206120766160008201527f6c6964206f776e65720000000000000000000000000000000000000000000000602082015250565b60006129b4602983612131565b91506129bf82612958565b604082019050919050565b600060208201905081810360008301526129e3816129a7565b9050919050565b600081905092915050565b6000612a0082612126565b612a0a81856129ea565b9350612a1a818560208601612142565b80840191505092915050565b6000612a3282856129f5565b9150612a3e82846129f5565b91508190509392505050565b7f4552433732313a206d696e7420746f20746865207a65726f2061646472657373600082015250565b6000612a80602083612131565b9150612a8b82612a4a565b602082019050919050565b60006020820190508181036000830152612aaf81612a73565b9050919050565b7f4552433732313a20746f6b656e20616c7265616479206d696e74656400000000600082015250565b6000612aec601c83612131565b9150612af782612ab6565b602082019050919050565b60006020820190508181036000830152612b1b81612adf565b9050919050565b7f45524337323155524953746f726167653a2055524920736574206f66206e6f6e60008201527f6578697374656e7420746f6b656e000000000000000000000000000000000000602082015250565b6000612b7e602e83612131565b9150612b8982612b22565b604082019050919050565b60006020820190508181036000830152612bad81612b71565b9050919050565b60008190508160005260206000209050919050565b60006020601f8301049050919050565b600082821b905092915050565b600060088302612c167fffffffffffffffffffffffffffffffffffffffffffffffffffffffffffffffff82612bd9565b612c208683612bd9565b95508019841693508086168417925050509392505050565b6000819050919050565b6000612c5d612c58612c5384611e42565b612c38565b611e42565b9050919050565b6000819050919050565b612c7783612c42565b612c8b612c8382612c64565b848454612be6565b825550505050565b600090565b612ca0612c93565b612cab818484612c6e565b505050565b5b81811015612ccf57612cc4600082612c98565b600181019050612cb1565b5050565b601f821115612d1457612ce581612bb4565b612cee84612bc9565b81016020851015612cfd578190505b612d11612d0985612bc9565b830182612cb0565b50505b505050565b600082821c905092915050565b6000612d3760001984600802612d19565b1980831691505092915050565b6000612d508383612d26565b9150826002028217905092915050565b612d6982612126565b67ffffffffffffffff811115612d8257612d81611e93565b5b612d8c8254612665565b612d97828285612cd3565b600060209050601f831160018114612dca5760008415612db8578287015190505b612dc28582612d44565b865550612e2a565b601f198416612dd886612bb4565b60005b82811015612e0057848901518255600182019150602085019450602081019050612ddb565b86831015612e1d5784890151612e19601f891682612d26565b8355505b6001600288020188555050505b505050505050565b7f4552433732313a207472616e736665722066726f6d20696e636f72726563742060008201527f6f776e6572000000000000000000000000000000000000000000000000000000602082015250565b6000612e8e602583612131565b9150612e9982612e32565b604082019050919050565b60006020820190508181036000830152612ebd81612e81565b9050919050565b7f4552433732313a207472616e7366657220746f20746865207a65726f2061646460008201527f7265737300000000000000000000000000000000000000000000000000000000602082015250565b6000612f20602483612131565b9150612f2b82612ec4565b604082019050919050565b60006020820190508181036000830152612f4f81612f13565b9050919050565b7f4552433732313a20617070726f766520746f2063616c6c657200000000000000600082015250565b6000612f8c601983612131565b9150612f9782612f56565b602082019050919050565b60006020820190508181036000830152612fbb81612f7f565b9050919050565b7f4552433732313a207472616e7366657220746f206e6f6e20455243373231526560008201527f63656976657220696d706c656d656e7465720000000000000000000000000000602082015250565b600061301e603283612131565b915061302982612fc2565b604082019050919050565b6000602082019050818103600083015261304d81613011565b9050919050565b600081519050919050565b600082825260208201905092915050565b600061307b82613054565b613085818561305f565b9350613095818560208601612142565b61309e81611e82565b840191505092915050565b60006080820190506130be6000830187612226565b6130cb6020830186612226565b6130d86040830185612041565b81810360608301526130ea8184613070565b905095945050505050565b60008151905061310481612097565b92915050565b6000602082840312156131205761311f611e02565b5b600061312e848285016130f5565b91505092915050565b7f4e487b7100000000000000000000000000000000000000000000000000000000600052601260045260246000fdfea2646970667358221220e85feeef0d35d17ad47ec68039c6716b8e86c0afabe7c4de3fb509c64d5a676864736f6c634300081e0033",
  "immutableReferences": {},
  "source": "// SPDX-License-Identifier: MIT\r\npragma solidity ^0.8.20;\r\n\r\nimport \"@openzeppelin/contracts/token/ERC721/extensions/ERC721URIStorage.sol\";\r\nimport \"@openzeppelin/contracts/utils/Counters.sol\";\r\n\r\ncontract EcoNexus is ERC721URIStorage {\r\n    using Counters for Counters.Counter;\r\n    Counters.Counter private _tokenIds;\r\n\r\n    // 1. STATE VARIABLES\r\n    mapping(address => uint256) public ecoBalance;\r\n    mapping(address => uint256) public lastMintTime;\r\n    \r\n    // The \"Tunable\" Cooldown (Starts at 60 seconds)\r\n    uint256 public cooldownPeriod = 60; \r\n\r\n    // The Boss (You)\r\n    address public owner;\r\n\r\n    // 2. EVENTS\r\n    event DataMinted(uint256 indexed tokenId, address indexed miner, int256 lat, int256 lon, uint256 aqi, string ipfsHash);\r\n    event CooldownChanged(uint256 newTime);\r\n\r\n    // 3. MODIFIER (Security)\r\n    modifier onlyOwner() {\r\n        require(msg.sender == owner, \"Only the Owner can do this!\");\r\n        _;\r\n    }\r\n\r\n    constructor() ERC721(\"EcoPulse Data\", \"PULSE\") {\r\n        owner = msg.sender; // You become the owner when you deploy\r\n    }\r\n\r\n    // 4. THE GOVERNANCE FUNCTION (Change time in future)\r\n    // Pass time in seconds (e.g., 3600 for 1 hour)\r\n    function setCooldown(uint256 _newSeconds) public onlyOwner {\r\n        cooldownPeriod = _newSeconds;\r\n        emit CooldownChanged(_newSeconds);\r\n    }\r\n\r\n    // 5. THE MAIN FUNCTION\r\n    function submitData(int256 _lat, int256 _lon, uint256 _aqi, string memory _tokenURI) \r\n        public \r\n        returns (uint256)\r\n    {\r\n        // Check the dynamic cooldown\r\n        require(block.timestamp >= lastMintTime[msg.sender] + cooldownPeriod, \"Cooldown active: Please wait!\");\r\n\r\n        _tokenIds.increment();\r\n        uint256 newItemId = _tokenIds.current();\r\n\r\n        _mint(msg.sender, newItemId);\r\n        _setTokenURI(newItemId, _tokenURI);\r\n\r\n        ecoBalance[msg.sender] += 10;\r\n        lastMintTime[msg.sender] = block.timestamp;\r\n\r\n        emit DataMinted(newItemId, msg.sender, _lat, _lon, _aqi, _tokenURI);\r\n\r\n        return newItemId;\r\n    }\r\n    \r\n    // Helper for Frontend\r\n    function getTimeUntilNextMint(address _user) public view returns (uint256) {\r\n        if (block.timestamp >= lastMintTime[_user] + cooldownPeriod) {\r\n            return 0;\r\n        } else {\r\n            return (lastMintTime[_user] + cooldownPeriod) - block.timestamp;\r\n        }\r\n    }\r\n}",
  "sourcePath": "C:\\Users\\hp\\OneDrive\\Desktop\\Projects\\ECO.TWIN\\blockchain\\contracts\\EcoNexus.sol",
  "compiler": {
    "name": "solc",
    "version": "0.8.30+commit.73712a01.Emscripten.clang"
  },
  "schemaVersion": "3.4.16",
  "updatedAt": "2026-03-01T01:29:15.333Z",
  "networkType": "ethereum",
  "devdoc": {
    "events": {
      "Approval(address,address,uint256)": {
        "details": "Emitted when `owner` enables `approved` to manage the `tokenId` token."
      },
      "ApprovalForAll(address,address,bool)": {
        "details": "Emitted when `owner` enables or disables (`approved`) `operator` to manage all of its assets."
      },
      "BatchMetadataUpdate(uint256,uint256)": {
        "details": "This event emits when the metadata of a range of tokens is changed. So that the third-party platforms such as NFT market could timely update the images and related attributes of the NFTs."
      },
      "MetadataUpdate(uint256)": {
        "details": "This event emits when the metadata of a token is changed. So that the third-party platforms such as NFT market could timely update the images and related attributes of the NFT."
      },
      "Transfer(address,address,uint256)": {
        "details": "Emitted when `tokenId` token is transferred from `from` to `to`."
      }
    },
    "kind": "dev",
    "methods": {
      "approve(address,uint256)": {
        "details": "See {IERC721-approve}."
      },
      "balanceOf(address)": {
        "details": "See {IERC721-balanceOf}."
      },
      "getApproved(uint256)": {
        "details": "See {IERC721-getApproved}."
      },
      "isApprovedForAll(address,address)": {
        "details": "See {IERC721-isApprovedForAll}."
      },
      "name()": {
        "details": "See {IERC721Metadata-name}."
      },
      "ownerOf(uint256)": {
        "details": "See {IERC721-ownerOf}."
      },
      "safeTransferFrom(address,address,uint256)": {
        "details": "See {IERC721-safeTransferFrom}."
      },
      "safeTransferFrom(address,address,uint256,bytes)": {
        "details": "See {IERC721-safeTransferFrom}."
      },
      "setApprovalForAll(address,bool)": {
        "details": "See {IERC721-setApprovalForAll}."
      },
      "supportsInterface(bytes4)": {
        "details": "See {IERC165-supportsInterface}"
      },
      "symbol()": {
        "details": "See {IERC721Metadata-symbol}."
      },
      "tokenURI(uint256)": {
        "details": "See {IERC721Metadata-tokenURI}."
      },
      "transferFrom(address,address,uint256)": {
        "details": "See {IERC721-transferFrom}."
      }
    },
    "version": 1
  },
  "userdoc": {
    "kind": "user",
    "methods": {},
    "version": 1
  }
}